:400000000010002011000000B5040000B504000008B500F051FAC04610B5124C23688022D20213432360182000F076FB22680E4B134023600D4A0E4B1A6010220D4B1A6092
:40004000802212060C4B1A600C4A0D4B1A6009200C4900F045FB092000F036FB00220A4B1A6010BD00010B40FFFFFBFF0600008004010B403002024008010B40380100807C
:4000800000000240290900000C020B4038B572B6002410E0354863001A195200821891881B195B001A5AC31858880004104300F065FA0134E4B2012CECD9002412E02B4D83
:4000C000A3001A195200AA189189D08900040843131C128A598A09041143802200F054FA0134E4B2002CEAD02049081C1830383100F02AFA802252001D4B1A80FF3A1D4BCB
:400100001A70C02292031C4B1A60EE2212021B4B1A601B4A1B4B1A60802292041A4B1A608022D204194B1A6099221204184B1A60184B197802220A431A70174802783C2154
:400140008A4328390A430270197816220A431A702022124B1A60C4229202114B1A60D8221201104B1A60FFF757FF38BD6C0B000000600F4002600F40000001400C00014001
:400180000400990000500F4004500F4008500F4030500F4000700F4001700F4000000440080004400803044010B5064C2378002B07D1054B002B02D0044800E000BF01237B
:4001C000237010BDE8000020000000003C0A000008B5084B002B03D00748084900E000BF07480368002B00D108BD064B002BFBD09847F9E7000000003C0A0000EC00002031
:40020000C80000200000000070B5061C00F00AFA051EFBD000F01AFA0D2D02D10023337002E035700136F1E770BDC04670B5041C0D1C1F4800F016FA201CFFF7E5FF1D4EB7
:40024000301C00F00FFA1C4800F00CFA281CFFF7DBFF301C00F006FA002200E00132A35C002BFBD100E00133E95C0029FBD19A421AD103DB01DC002200E01A1C00230FE04A
:40028000E05CE95C884203D9401A3030C0B20DE0884204D2081A011C3031C8B206E001339342EDDB302001E00120404270BDC046400A00005C0A0000600A000070B5041C27
:4002C0000D1C134800F0CEF9201CFFF79DFF114E301C00F0C7F9104800F0C4F9281CFFF793FF301C00F0BEF9002300E00133E25C002AFBD1002006E0215C2A78914201D1A1
:40030000303004E001309842F6DB0120404270BD400A00005C0A0000600A0000F0B5474680B4061C0F1C214800F09CF9301CFFF76BFF1F4C201C00F095F91E4800F092F960
:40034000381CFFF761FF201C00F08CF900239C4602E001239846C4446346F35C002BF8D1002200E00132BB5C002BFBD10020984615E04418355DFC5CA5420FD1002B00D106
:400380008046541E9C4202D1404630300BE00131013301E0002300219342EADB01306045F8DB0120404204BC9046F0BD7C0A00005C0A0000900A0000F0B585B000AF62B6A8
:4003C00000F020F9344B1B680733DB08DB006A46D21A95466D46D21A95466E46D21A95463A60D31A9D466C462C4800F03BF90F23F818FFF709FF2A4800F034F9FB7B322B38
:4004000012D0332B27D0312B3BD1301C3968FFF70DFF7860234800F025F9387900F016F91F4800F01FF9DFE7281C0C23F918FFF745FF78601C4800F015F97B68002B03DB14
:40044000D8B200F003F902E0184800F00BF9144800F008F9C8E7281C211CFFF75FFF7860104800F0FFF87B68002B03DBD8B200F0EDF802E00D4800F0F5F8094800F0F2F85E
:40048000B2E70B4800F0EEF8F87B00F0DFF8044800F0E8F8A8E7C046CC000020A80A00005C0A0000140B0000340B0000540B0000580B0000FEE7C04670B50F4E0F4D13E0AF
:4004C00029686B68AC68002202E001C901C30432A242FAD1E868002202E0002102C304328242FAD11035013E002EE9D100F06EFAFFF762FFFEE7C04601000000840E000075
:4005000008B500230AE0032B03D89A000A49505800E00A4899000A4A885001332F2BF2D9FFF7B4FD0022074B1A608022D205116801230B43136008BD00000000B504000019
:4005400000000020C0000020F0B50025002711E0BB00C658F3B2FF22964308E06A008A181478A419527822700135013BDBB2002BF4D10137072FEBD9F0BDC04608B50A1CD1
:40058000002100F052FA08BD08B500F045FA08BD7222074B1A70523A064B1A701A3A064B1A704132054B1A700022054B1A70704780000F4081000F4022000F4032000F40D1
:4005C00083000F4010B500F075F8041C0A4A117820230B43137009490A7810231A43D2B20A70074A11780B43DBB2137000F04EF8201C00F063F810BD90000F4091000F4013
:4006000093000F4008B5064B1B78002B04D1FFF7BFFF0122024B1A70FFF7D4FF08BDC04604010020074B1B78DBB29A0606D5064A1078C0B21E221A4202D102E0002000E048
:400640000020704761000F4040000F40034B1B785B07FBD4024B18707047C04663000F4043000F4038B5084B1B78002B05D109E0FFF7ECFF0134A4B201E0051C0024285DA8
:400680000028F5D138BDC04604010020034A1368802109060B4313607047C046000002400230800804D0C0460138FDD1C046C046C0467047EFF3108072B6704780F3108834
:4006C0007047C046C046C0461F2318401E3B8340181C014B1860704700E100E001BE704738B5041C0D1C1F2802D90020FFF7F6FFA400034B9C4664442068256038BDC046AE
:400700004000002008B5034B1B7A5843FFF7C8FF08BDC046D0000020F0B557464E46C0B483B0041CFFF7C6FF0190E71E2D2F74D83F4B1B78DBB2A34208D33E4B1B78DBB2FD
:400740009A463D4B1B78DBB2994631E03B4B1B78DBB2A34208D33A4B1B78DBB29A46394B1B78DBB2994623E0374B1B78DBB2A34208D3364B1B78DBB29A46354B1B78DBB20D
:40078000994615E0334B1B78DBB2A34208D3324B1B78DBB29A46314B1B78DBB2994607E02F4B1B78DBB29A462E4B1B78DBB299462D4BDE5D2F2E09D92A2C07D919222B4B5D
:4007C0001A600520FFF76CFF192503E0274B1D683F231D40AE4206D2234BDA5D234B1A600520FFF75DFF1F4B9C4664442378DBB21F4A13601F4B52461A601F4B4A461A606E
:400800000520FFF77FFFAE420AD9174BDA5D174B1A600520FFF744FF02E00020FFF75EFF0198FFF74BFF03B00CBC91469A46F0BDC0F1FF0FC1F1FF0FC2F1FF0FC3F1FF0F6A
:40084000C4F1FF0FC5F1FF0FC6F1FF0FC7F1FF0FC8F1FF0FC9F1FF0FCAF1FF0FCBF1FF0FCCF1FF0FCDF1FF0F300E00002CFF0B4028FF0B401CFF0B4020FF0B40034B1868E9
:40088000C0231B02184000D00120704700010B4008B5FFF70FFF044A1368C02109020B431360FFF70BFF08BD00010B4010B5FFF701FF08490A68084B1A408024E40122438B
:4008C0000A600A6813408022120213430B60FFF7F5FE10BD00010B40FF3FFFFF70B5061CFFF7E8FE041CFFF7C9FF002803D0FFF7DDFF012500E000250848331C0340084AE7
:40090000106808490840184310601368012D01D1FFF7BEFF201CFFF7D1FE70BD0404040010020B40FBFBFBFF10B5244B1B685B0715D5234B1B685B070ED5224B996904205A
:4009400001401F4C22688A4322609A6982439A61DB68002B00D098470420FFF7BFFF174B1B685B0518D5164B1B685B0510D5154B99698022D2001140114802688A430260C6
:400980009969114A0A409A611B69002B00D098478020C000FFF7A2FF084B1B685B030CD5074B1B685B0304D5064B5B69002B00D098478020C002FFF791FF10BD10020B401E
:4009C000E000002008010020FFFBFFFF0E4B70B500251E1C0D4CE41AA410A54204D0AB00F35898470135F8E700F03AFA084B00251E1C084CE41AA410A54204D0AB00F358BC
:400A000098470135F8E770BD6C0E00006C0E00006C0E0000740E0000002310B5934203D0CC5CC4540133F9E710BD031C8218934202D019700133FAE770470000000000003F
:400A4000456E7465722074686520666972737420737472696E673A20000000000A0D0000456E74657220746865207365636F6E6420737472696E673A20000000456E74650F
:400A8000722074686520737472696E673A200000456E746572207468652073756220737472696E673A20000046756E6374696F6E20746F206578656375746520283120661D
:400AC0006F7220737472696E6720636F6D706172652C2032206F6620636861726163746572207365617263682C203320666F72207375622D737472696E672073656172633F
:400B0000682C206F72202D3120746F2065786974293A200054686520737472696E6720636F6D706172696F6E732072657475726E65642000546865206368617261637465EA
:400B40007220697320617420706F736974696F6E200000002D3100004572726F6E656F757320656E747279200000000080300F40800300400F40000400300F40B00D00007A
:400B80008000000003000F4011300F4036310F406B320F4047330F4004400F4003410F4002600F4080728138830F82018E0490089A029E01A602B001B202B404B608BB022C
:400BC000BE45D418D804D904DB04DF010201036804020601088009010A240D220E0110801360150819A21A011B081D101E021F0521042348274029242A013110334A382006
:400C00003A023B4040D1430249A0500151205B085D02670A69146A80709071047206732080108340C09FC2DFC42BCA07CC0FCE0DD00BD20CD682D8300010018002AC0313AB
:400C4000041408DC0A220B081203130C140C152C167117431E20200922D02410264029712B0E2D712F06301F32E03330350F37C039883A083B203F044002464049FF4A0729
:400C80004BFF4C404D204EF04F055008580459045A045F01604061A86240632081018208830A840A850286148709882089138AC08E159013920C9480962098139A049D10B8
:400CC000A003A120A214A4E0A513A8E0AB04AC40AE20B00FB110B320B4E0B503B610B70CBA02BE40BF44C054C103C5EBC60CC807C9FFCAFFCBFFCEF0CF44D00CD401D804E6
:400D0000D904DA04DB04DF01E6C0EA40EB020004012002800302050607080A600B080D0A0F021090111412011610170119A21A401B201D0A1F0C20412214230424042680CD
:400D40002729281029212C022E402F083240370939103A013B043C203F02430A472048024905508054105610570359815A085B108C808F1091149280944196209A01A502A6
:400D8000A720A921AA01B601C07FC2BEC43FCA37CCC8CEA7D023D208D60FEA100A405F02C210D680AA40B702E820100111010000FF100000C30000000F08F000413C00428F
:400DC000F3000C03823C004104000004007FF30008040000001800000C6700181C00E300C01F2C400F201C000008280200000010640305000100E0C028FFFFFF62A0F0418D
:400E00000C0000000000021204040404000000010000000000004002001030100010101200000000000000000000000000000000030405060708090A0B0C0E0F101112130F
:400E40001415161718191B1C1D1E1F2021222325262728292A2B2E2F3031323334350000F8B5C046F8BC08BC9E467047D101000001050000F8B5C046F8BC08BC9E467047CC
:400E8000A9010000980E0000C800002020000000400000000000000000000000190000000000E02EC05D00001800000000366E01040404000000000000000000000000008D
:400EC00000000000000000000000000000000000000000000000000000000000000000000000000000000000000000000000000000000000000000000000000000000000F2
:400F000000000000000000000000000000000000000000000000000000000000000000000000000000000000000000000000000000000000000000000000000000000000B1
:400F40000000000000000000000000000000000000000000000000000000000000000000000000000000000000000000000000000000000000000000000000000000000071
:400F80000000000000000000000000000000000000000000000000000000000000000000000000000000000000000000000000000000000000000000000000000000000031
:0200000490303A
:02000000DC0B17
:0200000490402A
:200000000000000000000000000000000000000000000000000000000000000000000000E0
:0200000490501A
:0C000000000204C81193110104CCED9E15
:0200000490600A
:0100000001FE
:00000001FF