:400000000010002011000000690200006902000008B500F043F9C04610B5124C23688022D20213432360182000F056FA22680E4B134023600D4A0E4B1A6010220D4B1A605E
:40004000802212060C4B1A600C4A0D4B1A6009200C4900F025FA092000F016FA00220A4B1A6010BD00010B40FFFFFBFF0600008004010B403002024008010B4038010080BE
:4000800000000240E90600000C020B4038B572B6002410E0354863001A195200821891881B195B001A5AC31858880004104300F057F90134E4B2012CECD9002412E02B4DD5
:4000C000A3001A195200AA189189D08900040843131C128A598A09041143802200F046F90134E4B2002CEAD02049081C1830383100F01CF9802252001D4B1A80FF3A1D4BE9
:400100001A70C02292031C4B1A60EE2212021B4B1A601B4A1B4B1A60802292041A4B1A608022D204194B1A6099221204184B1A60184B197802220A431A70174802783C2154
:400140008A4328390A430270197816220A431A702022124B1A60C4229202114B1A60D8221201104B1A60FFF757FF38BD8411000000600F4002600F40000001400C000140E3
:400180000400990000500F4004500F4008500F4030500F4000700F4001700F4000000440080004400803044010B5064C2378002B07D1054B002B02D0044800E000BF01237B
:4001C000237010BD48010020000000002C11000008B5084B002B03D00748084900E000BF07480368002B00D108BD064B002BFBD09847F9E7000000002C1100004C01002081
:40020000C80000200000000010B5041C054800F007F9002003E001232340C0186410002CF9D110BD3011000010B584B062B600F0DBF80A4800F0F4F80820FFF7E5FF041CB6
:4002400068460749221C00F071FB684600F0E8F8012C02D1034800F0E3F8FEE7481100006411000068110000FEE7C04608B5031C084A1068C318084A9A1A802A02DC054ADD
:40028000136005E000F014FB0C2303600120404208BDC046CC0000209001002070B50F4E0F4D13E029686B68AC68002202E001C901C30432A242FAD1E868002202E0002115
:4002C00002C304328242FAD11035013E002EE9D100F0F4FAFFF7A8FFFEE7C04601000000D414000008B500230AE0032B03D89A000A49505800E00A4899000A4A8850013326
:400300002F2BF2D9FFF7C2FE0022074B1A608022D205116801230B43136008BD000000006902000000000020C0000020F0B50025002711E0BB00C658F3B2FF22964308E0AB
:400340006A008A181478A419527822700135013BDBB2002BF4D10137072FEBD9F0BDC04608B50A1C002100F0D8FA08BD08B500F0CBFA08BD7222074B1A70523A064B1A705F
:400380001A3A064B1A704132054B1A700022054B1A70704780000F4081000F4022000F4032000F4083000F4010B500F063F8041C0A4A117820230B43137009490A78102383
:4003C0001A43D2B20A70074A11780B43DBB2137000F03AF8201C00F051F810BD90000F4091000F4093000F4008B5064B1B78002B04D1FFF7BFFF0122024B1A70FFF7D4FF4D
:4004000008BDC04664010020034B1B785B07FBD4024B18707047C04663000F4043000F4038B5084B1B78002B05D109E0FFF7ECFF0134A4B201E0051C0024285D0028F5D1C2
:4004400038BDC04664010020034A1368802109060B4313607047C04600000240000000000230800804D0C0460138FDD1C046C046C0467047EFF3108072B6704780F3108804
:400480007047C046C046C0461F2318401E3B8340181C014B1860704700E100E001BE704738B5041C0D1C1F2802D90020FFF7F6FFA400034B9C4664442068256038BDC046F0
:4004C0004000002008B5034B1B7A5843FFF7C8FF08BDC046D0000020F0B557464E46C0B483B0041CFFF7C6FF0190E71E2D2F74D83F4B1B78DBB2A34208D33E4B1B78DBB240
:400500009A463D4B1B78DBB2994631E03B4B1B78DBB2A34208D33A4B1B78DBB29A46394B1B78DBB2994623E0374B1B78DBB2A34208D3364B1B78DBB29A46354B1B78DBB24F
:40054000994615E0334B1B78DBB2A34208D3324B1B78DBB29A46314B1B78DBB2994607E02F4B1B78DBB29A462E4B1B78DBB299462D4BDE5D2F2E09D92A2C07D919222B4B9F
:400580001A600520FFF76CFF192503E0274B1D683F231D40AE4206D2234BDA5D234B1A600520FFF75DFF1F4B9C4664442378DBB21F4A13601F4B52461A601F4B4A461A60B0
:4005C0000520FFF77FFFAE420AD9174BDA5D174B1A600520FFF744FF02E00020FFF75EFF0198FFF74BFF03B00CBC91469A46F0BDC0F1FF0FC1F1FF0FC2F1FF0FC3F1FF0FAD
:40060000C4F1FF0FC5F1FF0FC6F1FF0FC7F1FF0FC8F1FF0FC9F1FF0FCAF1FF0FCBF1FF0FCCF1FF0FCDF1FF0F481400002CFF0B4028FF0B401CFF0B4020FF0B40034B18680D
:40064000C0231B02184000D00120704700010B4008B5FFF70FFF044A1368C02109020B431360FFF70BFF08BD00010B4010B5FFF701FF08490A68084B1A408024E4012243CD
:400680000A600A6813408022120213430B60FFF7F5FE10BD00010B40FF3FFFFF70B5061CFFF7E8FE041CFFF7C9FF002803D0FFF7DDFF012500E000250848331C0340084A29
:4006C000106808490840184310601368012D01D1FFF7BEFF201CFFF7D1FE70BD0404040010020B40FBFBFBFF10B5244B1B685B0715D5234B1B685B070ED5224B996904209D
:4007000001401F4C22688A4322609A6982439A61DB68002B00D098470420FFF7BFFF174B1B685B0518D5164B1B685B0510D5154B99698022D2001140114802688A43026008
:400740009969114A0A409A611B69002B00D098478020C000FFF7A2FF084B1B685B030CD5074B1B685B0304D5064B5B69002B00D098478020C002FFF791FF10BD10020B4060
:40078000E000002068010020FFFBFFFF002243088B4274D303098B425FD3030A8B4244D3030B8B4228D3030C8B420DD3FF22090212BA030C8B4202D31212090265D0030B8E
:4007C0008B4219D300E0090AC30B8B4201D3CB03C01A5241830B8B4201D38B03C01A5241430B8B4201D34B03C01A5241030B8B4201D30B03C01A5241C30A8B4201D3CB026A
:40080000C01A5241830A8B4201D38B02C01A5241430A8B4201D34B02C01A5241030A8B4201D30B02C01A5241CDD2C3098B4201D3CB01C01A524183098B4201D38B01C01A7B
:40084000524143098B4201D34B01C01A524103098B4201D30B01C01A5241C3088B4201D3CB00C01A524183088B4201D38B00C01A524143088B4201D34B00C01A5241411A52
:4008800000D20146524110467047FFE701B5002000F00CF802BDC0460029F7D003B5FFF775FF0EBC4243891A1847C0467047C046014B18687047C046440100200E4B70B578
:4008C00000251E1C0D4CE41AA410A54204D0AB00F35898470135F8E700F0EAFD084B00251E1C084CE41AA410A54204D0AB00F35898470135F8E770BDBC140000BC140000E8
:40090000BC140000C4140000002310B5934203D0CC5CC4540133F9E710BD031C8218934202D019700133FAE7704700000EB410B59DB002A9029008610B48822488604861A5
:40094000012040421FABC881084804CBA400006801938C8100F06CF80023029A13701DB010BC08BC03B01847FFFFFF7F44010020F0B58E6885B0071C0C1C03920193B342D6
:4009800045D390238A89DB001A423DD003250969236801985B1A029363695D43EB0F5D19029B6D1001331B189D4200D21D1C381C53050FD5291C00F01DFB061E13D0029A86
:4009C0002169FFF7A1FFA289184B134080221343A38111E02A1C00F065FB061E0CD1381C216900F0C1FA0C23402201203B60A38940421343A38117E0029B2661F6182660A5
:400A00006561019EED1AA560019BB34200D2019E321C2068039900F092FA0020A3689B1BA36023689E19266005B0F0BD7FFBFFFFF0B59FB0029005938B890E1C171C1B061F
:400A400010D50B69002B0DD1402100F0D3FA30603061002804D10C23029A01381360D0E040237361002306AD6B6120336B761033AB763C1C2378002B03D1E31B049312D0D7
:400A800003E0252BF9D00134F4E7049B0298311C3A1CFFF76DFF431C00D1ACE06A69049B944663446B612378002B00D1A3E00122002352426A6002A95432521801342B6058
:400AC000EB60AB601370AB654F4F2178381C052200F02AFA002808D0C01B01278740381C2B68013418432860EEE72B68DA0604D55322202102A8121811701A0704D55322E3
:400B00002B2102A81218117022782A2A01D0099B0EE0059A111D12680591002A01DB099204E05242EA60022213432B60013409E02278303A092A04D80A214B4301349B18AC
:400B4000F6E7099323782E2B18D163782A2B09D1059B02341A1D1B680592002B0DDA01235B420AE0002301342278303A092A04D80A214B4301349B18F6E70793234F2178A3
:400B8000381C032200F0D0F9002807D0C01B40278740381C2B6801341843286021781C480622671C297600F0BFF9002812D0194B002B06D10722059B0733934308330593F1
:400BC00014E005AB00930298291C321C124B00E000BF07E005AB00930298291C321C0E4B00F08AF80390039B013304D06B69039A9B186B613DE7B3890B985B0601D50120EF
:400C000040421FB0F0BDC0467A14000080140000841400000000000071090000F7B5171C01930A698B6800900C1C934200DA131C221C3B6043321278002A01D001333B606B
:400C400023689B0602D53B6802333B60062523681D401ED0231C43331B785A1E9341226892061CD53020E1184031C870211C5A1C45310978A21840320233D1700FE0221CEB
:400C80000123009801991932089EB047431C0ED00135E3683A689B1A9D42F0DBDAE7221C009801994332089DA847431C02D10120404220E006232068E1683A680340002524
:400CC000042B03D18D1AEB43DB171D40A3682269934201DD9B1AED180027AF420ADA221C0123009801991A32089EB047431CDED00137F2E70020FEBDF0B58BB006920A1CBA
:400D000043320793059004920A7E0C1C109B6E2A00D1A8E011D8632A22D009D8002A00D1B2E0582A00D0C2E045310A707C4A4FE0642A1DD0692A1BD0B9E0732A00D1A7E0F7
:400D400009D86F2A29D0702A00D0B0E0202209680A43226037E0752A1FD0782A33D0A6E00E1C1A684236111D196013683370A1E021681A68080606D4490604D5111D196088
:400D80000023D55E02E0111D19601568002D3BDA2D23049A6D42137036E021681A68080606D4490604D51568111D1960ADB202E0111D196015685A4B227E03930A276F2A16
:400DC0001DD108271BE0221C782145321170554A19680392081D226818600D68100602D4500600D5ADB2D30702D520231A4322601027002D03D1202322689A432260231CCF
:400E0000002243331A7002E00A27454B03936368A360002B03DB0422216891432160002D02D1049E002B0ED0049E281C391CFFF733FD039B013E5B5C281C3370391CFFF7AA
:400E4000A5FC051EF1D1082F09D12368DB0706D563682269934202DC3023013E3370049B9B1B23612BE009681A68080607D4490605D5111D19601368A28A1A8004E0111D72
:400E80001960136862691A600023049E236116E01A68111D196016680021301C626800F043F8002801D0801B6060636803E0261C42363270012323610023049A1370079BC5
:400EC00005980093211C069B09AAFFF7A7FE431C02D10120404221E0236905980699321C079DA847431CF4D023689B0705D4099BE068984212DA181C10E00025E368099A05
:400F00009B1A9D42F3DA221C0123059806991932079EB047431CDCD00135EFE70BB0F0BD8B1400009C140000C9B28218904204D003788B4202D00130F8E70020704710B57C
:400F4000814208D28B18984205D29B1A013A09D3995C8154FAE70023934203D0CC5CC4540133F9E710BD000030B500293ED004390B68002B00DAC9181D4A1368141C002B2E
:400F800002D14B60116031E099420DD208680A189A4203D11368C3180B6053684B60216024E08A4203D8131C5A68002AF9D11D685C198C420BD109686918581819609042AC
:400FC00014D110685268091819605A600EE08C4202D90C23036009E008680C18944203D114685268001908604A60596030BDC04688010020032370B5CC1C9C430834051C11
:401000000C2C01D20C2405E0002C03DA0C2300202B6042E08C42F9D3204A1368101C191C002913D00A68121B0DD40B2A02D90A608B181FE08B4202D15A6802601BE04A6892
:401040005A600B1C17E00B1C4968E9E7144E3368002B03D1281C00F04BF83060281C211C00F046F8031C421CD0D00322C61C964386420AD11C60181C07210B301A1D884389
:40108000821A0AD05142995007E0311A281C00F02FF8431CBAD0331CECE770BD8801002084010020F8B5061C0C1C151C002904D1111CFFF79FFF041C18E0002A03D1FFF738
:4010C00053FF2C1C12E000F025F8A8420ED2301C291CFFF78FFF071E07D0211C2A1CFFF713FC301C211CFFF73FFF3C1C201CF8BD38B50023064C051C081C2360FFF7B6F820
:40110000431C03D12368002B00D02B6038BDC0468C0100200B1F1A68101F002A04DA891804390B68D018043870470000000000005374617274696E672062697420636F75A2
:401140006E742E200A200D00436F6E6E656374696F6E2065737461626C69736865642E200A200D002564000049742773206120706F776572206F662074776F21200A200D36
:401180000000000080300F40800300400F40000400300F40C81300008000000003000F4011300F4036310F406B320F4047330F4004400F4003410F4002600F408072813871
:4011C000830F82018E0490089A029E01A602B001B202B404B608BB02BE45D418D804D904DB04DF010201036804020601088009010A240D220E0110801360150819A21A015F
:401200001B081D101E021F0521042348274029242A013110334A38203A023B4040D1430249A0500151205B085D02670A69146A80709071047206732080108340C09FC2DF70
:40124000C42BCA07CC0FCE0DD00BD20CD682D8300010018002AC0313041408DC0A220B081203130C140C152C167117431E20200922D02410264029712B0E2D712F06301FF1
:4012800032E03330350F37C039883A083B203F044002464049FF4A074BFF4C404D204EF04F055008580459045A045F01604061A86240632081018208830A840A85028614C2
:4012C0008709882089138AC08E159013920C9480962098139A049D10A003A120A214A4E0A513A8E0AB04AC40AE20B00FB110B320B4E0B503B610B70CBA02BE40BF44C054EC
:40130000C103C5EBC60CC807C9FFCAFFCBFFCEF0CF44D00CD401D804D904DA04DB04DF01E6C0EA40EB020004012002800302050607080A600B080D0A0F0210901114120165
:401340001610170119A21A401B201D0A1F0C204122142304240426802729281029212C022E402F083240370939103A013B043C203F02430A47204802490550805410561064
:40138000570359815A085B108C808F1091149280944196209A01A502A720A921AA01B601C07FC2BEC43FCA37CCC8CEA7D023D208D60FEA100A405F02C210D680AA40B7021C
:4013C000E820100111010000FF100000C30000000F08F000413C0042F3000C03823C004104000004007FF30008040000001800000C6700181C00E300C01F2C400F201C006B
:401400000008280200000010640305000100E0C028FFFFFF62A0F0410C00000000000212040404040000000100000000000040020010301000101012000000000000000010
:401440000000000000000000030405060708090A0B0C0E0F101112131415161718191B1C1D1E1F2021222325262728292A2B2E2F30313233343500004300232D302B20006E
:40148000686C4C006566674546470030313233343536373839414243444546003031323334353637383961626364656600000000F8B5C046F8BC08BC9E467047D10100006C
:4014C000E5020000F8B5C046F8BC08BC9E467047A9010000E8140000C800002080000000480000000000000000000000900100200000E02EC05D00001800000000366E0150
:401500000404040000000000000000000000000000000000000000000000000000000000000000007814000000000000000000000000000000000000000000000000000013
:40154000000000000000000000000000000000000000000000000000000000000000000000000000E400002000000000000000000000000000000000000000000000000067
:40158000000000000000000000000000000000000000000000000000000000000000000000000000000000000000000000000000000000000000000000000000000000002B
:4015C00000000000000000000000000000000000000000000000000000000000000000000000000000000000000000000000000000000000000000000000000000000000EB
:4016000000000000000000000000000000000000000000000000000000000000000000000000000000000000000000000000000000000000000000000000000000000000AA
:40164000000000000000000000000000000000000000000000000000000000000000000000000000000000000000000000000000000000000000000000000000000000006A
:0200000490303A
:02000000C31229
:0200000490402A
:200000000000000000000000000000000000000000000000000000000000000000000000E0
:0200000490501A
:0C000000000204C81193110104CED4A525
:0200000490600A
:0100000001FE
:00000001FF