:400000000010002011000000350300003503000008B500F091F9C04610B5124C23688022D20213432360182000F0F6FA22680E4B134023600D4A0E4B1A6010220D4B1A60D6
:40004000802212060C4B1A600C4A0D4B1A6009200C4900F0ADFA092000F09EFA00220A4B1A6010BD00010B40FFFFFBFF0600008004010B403002024008010B4038010080AE
:4000800000000240290800000C020B4038B572B601223F4B1A70002410E03E4863001A195200821891881B195B001A5AC31858880004104300F0A2F90134E4B2012CECD996
:4000C000002412E0334DA3001A195200AA189189D08900040843131C128A598A09041143802200F091F90134E4B2002CEAD02949081C1830383100F067F980225200264BE6
:400100001A80FF3A254B1A70C0229203244B1A60EE221202234B1A60234A244B1A6082221206234B1A6080221205224B1A6099231B04214A1360214A13600223204A136053
:40014000204A1360204B197802220A431A701F4802783C218A4328390A430270197816220A431A70A0221A4B1A601A4A1A4B1A6080221202194B1A60C0225203184B1A6054
:40018000D8221201174B1A60FFF746FF38BDC0461C700F409C0A000000600F4002600F40000001400C0001400400990000500F4004500F4008500F4010500F4030500F40AD
:4001C0002000004000800F4000700F4001700F400000044000104300080004400C000440080104400803044010B5064C2378002B07D1054B002B02D0044800E000BF012371
:40020000237010BDE8000020000000002C0A000008B5084B002B03D00748084900E000BF07480368002B00D108BD064B002BFBD09847F9E7000000002C0A0000EC00002010
:40024000C80000200000000010B500F02BF9041C00F04EF90B4800F057F9231C313B042B07D8094B1B68012B03D1303C064B5C6005E0064800F048F9024800F045F900F0FE
:4002800025F910BD300A0000CC000020340A000008B5322000F09EF900F07EFB0028FBD0322000F097F90D4B1B68012B09D100220A4B1A600A4800F027F90A4800F024F998
:4002C00008E0094800F020F9064800F01DF90122024B1A6000F068FB08BDC046CC000020700A0000300A0000880A000008B572B600F012FB0C4800F0EBFA00F03FFB0B48A6
:4003000000F01AFB62B600F0BDF8094B5868FA235B00584300F05EF900F016F943425841C0B200F005F9F0E74902000091020000CC000020FEE7C04670B50F4E0F4D13E0B3
:4003400029686B68AC68002202E001C901C30432A242FAD1E868002202E0002102C304328242FAD11035013E002EE9D100F026FBFFF7BCFFFEE7C04601000000C00D0000A8
:4003800008B500230AE0032B03D89A000A49505800E00A4899000A4A885001332F2BF2D9FFF774FE0022074B1A608022D205116801230B43136008BD00000000350300005B
:4003C00000000020C0000020F0B50025002711E0BB00C658F3B2FF22964308E06A008A181478A419527822700135013BDBB2002BF4D10137072FEBD9F0BDC04608B50A1C53
:40040000002100F00AFB08BD08B500F0FDFA08BD7222074B1A70523A064B1A701A3A064B1A704132054B1A700022054B1A70704780000F4081000F4022000F4032000F40E1
:4004400083000F4010B500F09DF8041C0A4A117820230B43137009490A7810231A43D2B20A70074A11780B43DBB2137000F074F8201C00F08BF810BD90000F4091000F401E
:4004800093000F4008B5064B1B78002B04D1FFF7BFFF0122024B1A70FFF7D4FF08BDC04604010020074B1B78DBB29A0606D5064A1078C0B21E221A4202D102E0002000E0CA
:4004C0000020704761000F4040000F4008B500F059F8064B197801220A431A701A7801218A431A7000F052F808BDC04690000F40034B1B785B07FBD4024B18707047C04679
:4005000063000F4043000F4038B5084B1B78002B05D109E0FFF7ECFF0134A4B201E0051C0024285D0028F5D138BDC0460401002004490A68BF231A4080017F3B18401043B4
:400540000860704700010440024B18684006C00F7047C04604010440034A1368802109060B4313607047C04600000240000000000230800804D0C0460138FDD1C046C04650
:40058000C0467047EFF3108072B6704780F310887047C046C046C0461F2318401E3B8340181C014B1860704700E100E001BE704738B5041C0D1C1F2802D90020FFF7F6FF5A
:4005C000A400034B9C4664442068256038BDC0464000002010B5041C06E0084B1868FFF7C7FF074B9C46644480231B029C42F4D8024B58686043FFF7BBFF10BDD400002056
:400600000080FFFF08B5034B1B7A5843FFF7B0FF08BDC046D4000020F0B557464E46C0B483B0041CFFF7AEFF0190E71E2D2F74D83F4B1B78DBB2A34208D33E4B1B78DBB20C
:400640009A463D4B1B78DBB2994631E03B4B1B78DBB2A34208D33A4B1B78DBB29A46394B1B78DBB2994623E0374B1B78DBB2A34208D3364B1B78DBB29A46354B1B78DBB20E
:40068000994615E0334B1B78DBB2A34208D3324B1B78DBB29A46314B1B78DBB2994607E02F4B1B78DBB29A462E4B1B78DBB299462D4BDE5D2F2E09D92A2C07D919222B4B5E
:4006C0001A600520FFF754FF192503E0274B1D683F231D40AE4206D2234BDA5D234B1A600520FFF745FF1F4B9C4664442378DBB21F4A13601F4B52461A601F4B4A461A609F
:400700000520FFF77FFFAE420AD9174BDA5D174B1A600520FFF72CFF02E00020FFF746FF0198FFF733FF03B00CBC91469A46F0BDC0F1FF0FC1F1FF0FC2F1FF0FC3F1FF0FB3
:40074000C4F1FF0FC5F1FF0FC6F1FF0FC7F1FF0FC8F1FF0FC9F1FF0FCAF1FF0FCBF1FF0FCCF1FF0FCDF1FF0F6C0D00002CFF0B4028FF0B401CFF0B4020FF0B40034B1868AF
:40078000C0231B02184000D00120704700010B4008B5FFF7F7FE044A1368C02109020B431360FFF7F3FE08BD00010B4010B5FFF7E9FE08490A68084B1A408024E4012243D7
:4007C0000A600A6813408022120213430B60FFF7DDFE10BD00010B40FF3FFFFF70B5061CFFF7D0FE041CFFF7C9FF002803D0FFF7DDFF012500E000250848331C0340084A18
:40080000106808490840184310601368012D01D1FFF7BEFF201CFFF7B9FE70BD0404040010020B40FBFBFBFF10B5244B1B685B0715D5234B1B685B070ED5224B9969042073
:4008400001401F4C22688A4322609A6982439A61DB68002B00D098470420FFF7BFFF174B1B685B0518D5164B1B685B0510D5154B99698022D2001140114802688A430260C7
:400880009969114A0A409A611B69002B00D098478020C000FFF7A2FF084B1B685B030CD5074B1B685B0304D5064B5B69002B00D098478020C002FFF791FF10BD10020B401F
:4008C000E400002008010020FFFBFFFF7047C046014B58647047C0460000002010B5041CFFF750FE044A1168044B0B40A4031C431460FFF74BFE10BD00E400E0FF3FFFFF21
:400900000222014B1A60704700E100E00222014B1A60704780E100E008B5FFF7F7FF0448FFF7D6FF0320FFF7D9FFFFF7E9FF08BDCD0800007047C046014B18647047C04608
:400940000000002010B5041CFFF71CFE044A1368C0218B43A4011C431460FFF717FE10BD00E400E00122014B1A60704700E100E00122014B1A60704780E100E008B5FFF7E1
:40098000F7FF0448FFF7D8FF0320FFF7DBFFFFF7E9FF08BD35090000024B18680006C00F7047C04604000440034A1068802318401060C009C0B27047100004400E4B70B5B9
:4009C00000251E1C0D4CE41AA410A54204D0AB00F35898470135F8E700F0E0F9084B00251E1C084CE41AA410A54204D0AB00F35898470135F8E770BDA80D0000A80D00002B
:400A0000A80D0000B00D0000002310B5934203D0CC5CC4540133F9E710BD031C8218934202D019700133FAE770470000000000000A0D0000506C6561736520696E7075741D
:400A400020612076616C7565206265747765656E203120616E642035206F7220656E61626C6520696E707574206D6F64652E0000496E707574206D6F646520444953414292
:400A80004C45442E00000000494E505554206D6F646520454E41424C45442E0080300F40800300400F40000400300F40EC0C00008000000003000F4013300F4039310F40FC
:400AC00069320F4047330F4009400F4002410F4002600F4080728138830F850186028E049E01A202A601B101B202B401B604BA02BE14BF01D418D604D804D904DB04DF0140
:400B000002810318061109080A460E0110801208130415081702180819B21A011B081C401D801E401F2421012205230A27402A092B083189331038683A023C0440414110A8
:400B4000431049A0510452105B085D02674A69046AA0709071087202730483618740C0AFC28FC43ECA07CC0FCE4FD00DD20CD682D8B001800313060308DC0A220C100EACDD
:400B8000130C140C152C167117431E20200922D0241026402708281429712B0E2D712F0632E03330341F350F37C039883A083B203F044002464049FF4A074BFF4C404D2088
:400BC0004EF04F055008580459045A045F01604061A86240632081018215830A840A8513861488208AC08C408E209013920C94E095029709980399139A149C139D109E0415
:400C0000A208A4E0A880AA20AB04B00FB303B4E0B510B610B70CBA02BE40BF40C051C103C5ECC70BC813C9FFCAFFCBFFCEF0CF44D00CD401D804D904DA04DB04DF01E6C0C9
:400C4000EA40EB0200020120022104040580070808100A620B080D080F021104120813021614170119601A441C041D081F082001211022082620272B29202D802E402F2826
:400C80003258370939043A013F0242024308472049814B085204540156125721581059415A088A018B08910492A89405952096049A019D01A608AA01AD01AE08B510B680E9
:400CC000C0EFC2AFC47ECA74CCCECE83D02AD208D60F0A4063206E8083108640C210D840DA80E6C0AA40E82010011101F3100C000067F3180F08F000417F0000FF800000D6
:400D00000C180000C30000031C00E30408040000043C0042823C004100000000C01F2C800F201C400080280200000014620405000100E00C18FFFFFF62A0F0410C000000B9
:400D40000000021204040404000000010000000000004002001030100010101200000000000000000000000000000000030405060708090A0B0C0E0F101112131415161786
:400D800018191B1C1D1E1F2021222325262728292A2B2E2F3031323334350000F8B5C046F8BC08BC9E4670471102000081030000F8B5C046F8BC08BC9E467047E90100003A
:400DC000D00D0000C800002020000000400000000000000001000000010000000000E02EC05D00001800000000366E010404040000000000000000000000000000000000D8
:400E000000000000000000000000000000000000000000000000000000000000000000000000000000000000000000000000000000000000000000000000000000000000B2
:400E40000000000000000000000000000000000000000000000000000000000000000000000000000000000000000000000000000000000000000000000000000000000072
:400E80000000000000000000000000000000000000000000000000000000000000000000000000000000000000000000000000000000000000000000000000000000000032
:400EC00000000000000000000000000000000000000000000000000000000000000000000000000000000000000000000000000000000000000000000000000000000000F2
:0200000490303A
:0200000082C9B3
:0200000490402A
:200000000000000000000000000000000000000000000000000000000000000000000000E0
:0200000490501A
:0C000000000204C81193110104CC945CB0
:0200000490600A
:0100000001FE
:00000001FF