:400000000010002011000000DD020000DD02000008B500F07FF9C04610B5124C23688022D20213432360182000F020FA22680E4B134023600D4A0E4B1A6010220D4B1A6070
:40004000802212060C4B1A600C4A0D4B1A6009200C4900F0D7F9092000F0C8F900220A4B1A6010BD00010B40FFFFFBFF0600008004010B403002024008010B40380100805C
:40008000000002407D0600000C020B4038B572B6002410E0384863001A195200821891881B195B001A5AC31858880004104300F093F90134E4B2012CECD9002412E02E4DFF
:4000C000A3001A195200AA189189D08900040843131C128A598A09041143802200F082F90134E4B2002CEAD02349081C1830383100F058F980225200204B1A80FF3A204B68
:400100001A70C02292031F4B1A60EE2212021E4B1A601E4A1E4B1A60802292041D4B1A608022D2041C4B1A6099231B041B4A13601B4A13601B4B197802220A431A701A4836
:4001400002783C218A4328390A430270197816220A431A702022154B1A60C4229202144B1A60C0225203134B1A60D8221201124B1A60FFF751FF38BDB84B000000600F40CC
:4001800002600F40000001400C0001400400990000500F4004500F4008500F4010500F4030500F4000700F4001700F400000044008000440080104400803044010B5064C3A
:4001C0002378002B07D1054B002B02D0044800E000BF0123237010BD80010020000000009C4B000008B5084B002B03D00748084900E000BF07480368002B00D108BD064B04
:40020000002BFBD09847F9E7000000009C4B000084010020C80000200000000070B59AB062B600F0B7FA01A8264B021C32CB32C21B68136000F0CAFA0025002413E001A8B5
:4002400021492A1C01F06EFC01A801F08DFC01AB9C4660441D49042200F0D2FF01A800F0B5FA01350134642CE9DD0024002624E0201C00F097FE041C0D1C01A81449221C2C
:400280002B1C01F04FFC01A801F06EFC01AB9C4660440E49042200F0B3FF01A800F096FA201C291C0B4A0C4B00F054FB00F0CEFE041C642000F0B8F80136642ED8DD002033
:4002C0001AB070BDA04B0000B04B0000AC4B0000B44B00009A9999999999B93FFEE7C04608B5031C094A1068C318094A9A1A802189008A4202DC054A136005E000F054FF6A
:400300000C2303600120404208BDC046CC000020C801002070B50F4E0F4D13E029686B68AC68002202E001C901C30432A242FAD1E868002202E0002102C304328242FAD129
:400340001035013E002EE9D100F034FFFFF766FFFEE7C04601000000AC50000008B500230AE0032B03D89A000A49505800E00A4899000A4A885001332F2BF2D9FFF786FE79
:400380000022074B1A608022D205116801230B43136008BD00000000DD02000000000020C0000020F0B50025002711E0BB00C658F3B2FF22964308E06A008A181478A4193D
:4003C000527822700135013BDBB2002BF4D10137072FEBD9F0BDC04608B50A1C002100F018FF08BD08B500F00BFF08BD1F2318401E3B8340181C014B1860704700E100E05B
:4004000001BE704738B5041C0D1C1F2802D90020FFF7F6FFA400034B9C4664442068256038BDC0464000002010B5041C06E0084B186800F0E9F9074B9C46644480231B02F3
:400440009C42F4D8024B5868604300F0DDF910BDD00000200080FFFF08B5034B1B7A584300F0D2F908BDC046D0000020F0B557464E46C0B483B0041C00F0D0F90190E71E84
:400480002D2F74D83F4B1B78DBB2A34208D33E4B1B78DBB29A463D4B1B78DBB2994631E03B4B1B78DBB2A34208D33A4B1B78DBB29A46394B1B78DBB2994623E0374B1B7883
:4004C000DBB2A34208D3364B1B78DBB29A46354B1B78DBB2994615E0334B1B78DBB2A34208D3324B1B78DBB29A46314B1B78DBB2994607E02F4B1B78DBB29A462E4B1B78F7
:40050000DBB299462D4BDE5D2F2E09D92A2C07D919222B4B1A60052000F076F9192503E0274B1D683F231D40AE4206D2234BDA5D234B1A60052000F067F91F4B9C466444E3
:400540002378DBB21F4A13601F4B52461A601F4B4A461A600520FFF77FFFAE420AD9174BDA5D174B1A60052000F04EF902E00020FFF746FF019800F055F903B00CBC9146E4
:400580009A46F0BDC0F1FF0FC1F1FF0FC2F1FF0FC3F1FF0FC4F1FF0FC5F1FF0FC6F1FF0FC7F1FF0FC8F1FF0FC9F1FF0FCAF1FF0FCBF1FF0FCCF1FF0FCDF1FF0F7C4E000017
:4005C0002CFF0B4028FF0B401CFF0B4020FF0B40034B1868C0231B02184000D00120704700010B4008B500F019F9044A1368C02109020B43136000F015F908BD00010B40E5
:4006000010B500F00BF908490A68084B1A408024E40122430A600A6813408022120213430B6000F0FFF810BD00010B40FF3FFFFF70B5061C00F0F2F8041CFFF7C9FF00289A
:4006400003D0FFF7DDFF012500E000250848331C0340084A106808490840184310601368012D01D1FFF7BEFF201C00F0DBF870BD0404040010020B40FBFBFBFF10B5244BB3
:400680001B685B0715D5234B1B685B070ED5224B9969042001401F4C22688A4322609A6982439A61DB68002B00D098470420FFF7BFFF174B1B685B0518D5164B1B685B05EF
:4006C00010D5154B99698022D2001140114802688A4302609969114A0A409A611B69002B00D098478020C000FFF7A2FF084B1B685B030CD5074B1B685B0304D5064B5B69CF
:40070000002B00D098478020C002FFF791FF10BD10020B40E00000209C010020FFFBFFFF7222074B1A70523A064B1A701A3A064B1A704132054B1A700022054B1A70704712
:4007400080000F4081000F4022000F4032000F4083000F4010B500F061F8041C0A4A117820230B43137009490A7810231A43D2B20A70074A11780B43DBB2137000F03AF83B
:40078000201C00F04FF810BD90000F4091000F4093000F4008B5064B1B78002B04D1FFF7BFFF0122024B1A70FFF7D4FF08BDC046B8010020034B1B785B07FBD4024B1870B5
:4007C0007047C04663000F4043000F4038B5084B1B78002B05D109E0FFF7ECFF0134A4B201E0051C0024285D0028F5D138BDC046B8010020034A1368802109060B43136029
:400800007047C046000002400230800804D0C0460138FDD1C046C046C0467047EFF3108072B6704780F310887047C046C046C046002243088B4274D303098B425FD3030A97
:400840008B4244D3030B8B4228D3030C8B420DD3FF22090212BA030C8B4202D31212090265D0030B8B4219D300E0090AC30B8B4201D3CB03C01A5241830B8B4201D38B03D4
:40088000C01A5241430B8B4201D34B03C01A5241030B8B4201D30B03C01A5241C30A8B4201D3CB02C01A5241830A8B4201D38B02C01A5241430A8B4201D34B02C01A52417F
:4008C000030A8B4201D30B02C01A5241CDD2C3098B4201D3CB01C01A524183098B4201D38B01C01A524143098B4201D34B01C01A524103098B4201D30B01C01A5241C308CE
:400900008B4201D3CB00C01A524183088B4201D38B00C01A524143088B4201D34B00C01A5241411A00D20146524110467047FFE701B5002000F00CF802BDC0460029F7D09D
:4009400003B5FFF775FF0EBC4243891A1847C0467047C046F0B5454657464E4694464C000A03C90FE0B488460E1C1903470FC500480A6146490F01436046520A1743C00061
:400980005A00640D520DDB0F8446984500D1A7E0A01A002800DC01E1002A3DD163460B4300D0D4E06B0700D188E00F232B40042B00D183E02A1DAA42AD4180236D427F191B
:4009C0001B043B404646151C002B00D17CE0CC4B01349C4200D1FDE03A1CCA4BED081A405007640552020543120B640D002112030B0D1B056405120B1A436308C24CF60705
:400A000014401C43640064083443281C211C1CBC90469946A246F0BDB94B9C42C2D080231B041943382800DDECE01F2800DD21E120220E1C6346121A9640C340334366461C
:400A40009640321C561EB24113430A1CC240EB1A9D42B6411D1CBA1A7642971B3B0200D497E07A02560A002E00D1B6E0301C00F07DFB031C083B1F2B00DDB7E09E40371C1D
:400A800028262A1C361AF240161C9D403E439C4200DDB2E01C1B621C1F2A00DDD8E01F23291C1C1B331CA540A340D1406C1EA541D64019430D43371C002473E780231B0405
:400AC0003B40464600D082E78D4BED0878070543FA089C4232D012036405120B640D85E7A31A002B00DC94E0002A3CD0844A944200D157E7802212041143382B00DC05E176
:400B000063461943481E81410022C8B24019A8429B41051CD2195B42D7183B0239D5784B01349C4200D14CE10120764A6B083A4028401843D5070543570833E72B1C13434B
:400B400048D080231B031A431203120B4EE70138002878D16346EE1AB5429B417A1A5B42D71A351C7AE7021C0A4300D11AE7013B002B00D0F2E04019A8429B41CA195B42F1
:400B8000D718051CC9E7131C334300D118E1171C351C46466B0700D007E795E700287AD1621C5205520D012A00DCFBE06246AA1A9542B6419146781A7242861A320200D4C2
:400BC00093E06246551BAC458041CF1B40423E1A984648E70022002508E7281C00F0C6FA2030031C083B1F2B00DC47E7283885402E1C00259C4200DC4CE7424AE41A164056
:400C0000371CCFE6634619434B1E99410022CBB21DE7002B00D0F2E0601C43055B0D012B00DCA4E0364B984200D121E163465C19AC429B41CF195B42FA186408D5072543DF
:400C40005708041CAEE62E4B9C4200D0EAE6A9E6211C331C1F39CB40191C202A00D182E03F231C1BA64035436E1EB54100270D4300248EE7031C0E1C203BDE40202874D063
:400C800040231B1A99400B1C62461343591E8B4100223343DBE6002C50D0194CA24200D1A8E08024240440422743382800DDD9E01F2800DD39E120243E1C241AA640B04670
:400CC0002E1CA146C640444626434C46A5406C1EA541C74035436046451BCF1BAC45894149427F1A141C9846B8E64B464D46334300D0B8E60026002700240025E4E6C0467B
:400D0000FF070000FFFF7FFFFFFF0F801F2B5BDC2022081CD21A9040814660469246D8404A4610438146524660469040021C501E8241484610430A1CDA40E7E63C1C2C43E8
:400D400058D0C043002851D16046451BAC458041CF1B40423F1A141C98467FE68F4A944200D0CAE61EE600267DE700238CE73B1C2B43002C00D0BDE0002B00D1F5E06346E3
:400D80000B4300D10EE663465B19AB428041CA19404217183A0200D4FCE0814A1D1C17400134FFE53A1C2A43002C51D1002A00D085E062460A4303D00F1C65469846F1E59F
:400DC0000026002700257FE6181C0A1C2038C240202B00D1A7E04020C01A8140081C63461843411E8841104300228FE66B4CA24200D05AE70F1C6546141C9846D2E5002C1D
:400E00003AD1381C284371D0DB43002B18D0634882426BD0382B00DD9DE01F2B00DDA7E020203C1CC01A8440A1462C1C8246DC404846044350468540681E8541DF40254315
:400E4000654465459B417F185B42FF18141C64E6002A19D162460A4377D00F1C654698464E4C9FE53D436F1EBD410027EDB232E7041C0027002527E64848824236D08020FF
:400E800000045B420743C5E762460A4349D08024ED087807FA0824032843224209D0CE08264206D162464F07381CD20810439846321CD200470F1743C500384C72E562461A
:400EC0000A4300D16EE56246AE1AB5429241781A5242821A100200D455E66246551BAC458041CA1B4042171A98465BE50F1C6546141C57E5002B34D063460B4311D08024F7
:400F0000ED087807FA08240328432242D1D0CB082342CED162464F07381CD20810431A1CC7E71E4C3EE5002059E7041C3E1C203CE640341C20282BD04026301A87403D43F7
:400F40006F1EBD4100272543C5E680270026FF03124C0025B8E53D436F1EBD410027EDB26EE70F1C65460D4C1CE50F1C654619E51C1C381C203CE040041C202B0CD04020E4
:400F8000C31A9F403D436F1EBD410027254357E70027D4E71D1CFCE50027F3E7FF070000FFFF7FFF4200120E511C38B5C9B243025D0AC40F012915DDE02189008C466D077C
:400FC0001B0B62440021281C0D0D2D052B431C4D52052B40520813435B00E4075B082343191C38BD002A15D1002D1FD0281C00F0BDF80A281DDC0B232A1C1B1ADA40131CC0
:40100000021C153295400F4A1B03121A52051B0B520DD7E7002D06D080221B0B120313436D07094ACEE7084A0023CBE700220023C8E7031C0B3B9D402B1C0025E3E7C046EE
:40104000FFFF0F8089030000FF07000070B50B034D00440F6D0D5B0A23436C1C6405C90FC200640D012C2ADD3B4C2C19FE2C1ADC002C35DD8001451EA841DB000343520F90
:4010800013435A0704D00F221A40042A00D004338022D2041A4027D00134FF2C03D09B015B0AE4B201E0FF2400235B02E4055B0A23435B00C9075B080B43181C70BD002DB0
:4010C00006D113430ED100245B025B0AE4B2ECE71A43E8D08020DB0080040343FF24D0E717340CDA05230024DB08FF2CECD1002B2DD08022D20313435B025B0AD5E7802402
:40110000164824042343401B1F280DDC144CA4466544AB401C1C131CAB405D1EAB41C240234313430024ACE71E1C0E4C641BE640341C20280DD00C4884466544AB401D1C93
:401140002A43531E9A41131C2343002499E70023ABE70025F4E7C04680FCFFFF9E03000082FCFFFF7E030000A2FCFFFF1C2101231B04984201D3000C10391B0A984201D3B8
:40118000000A08391B09984201D30009043902A2105C40187047C04604030202010101010000000000000000014B18687047C046440100200E4B70B500251E1C0D4CE41A76
:4011C000A410A54204D0AB00F35898470135F8E703F05AFF084B00251E1C084CE41AA410A54204D0AB00F35898470135F8E770BD9450000094500000945000009C50000028
:40120000002310B5934203D0CC5CC4540133F9E710BD031C8218934202D019700133FAE77047F0B58BB0141C1D1E129906DA802424062B191D1C141C2D2300E000230B7029
:401240002023149E03229E43462E07D0331C453B59424B411099013ACB181093109B00920193139B221C029308AB039309AB04932B1C00F007FD071C472E02D1119BDB07AE
:401280002CD5109BFB180793462E14D13B78302B0CD1201C291C0022002302F05BF9002804D10123109A9B1A139A1360139B079A1B68D3180793201C291C0022002302F0D6
:4012C00049F9002801D0079B0993099B079A934204D25A1C099230221A70F6E7381C099B159ADB1B13600BB0F0BDF7B52B23071C0C1C0270861C002901DA2D234C427B701D
:40130000092C1CDD6B46DD1D201C0A2102F008F9013D30312970201C0A2102F01BF8041E092CF1DC013D30342C706B460733301CAB4209D92B78013533700136F5E730238C
:40134000E4183370B01C7470C01BFEBDF0B593B00C1C08920993189E051C01F093FA0368181C0B9300F000FC0023216810930C90277E33680722C90501D59B1800E00733FF
:4013800093431A1C083232601A685B68A264E364A06CE16C00F09EFB012818D1A06CE16C0022002302F0DCF8002803D0231C2D2243331A70B64B0A93472F01D9B54B0A9357
:4013C00003232268236101339A43226012E0A06CE16C00F07FFB266800280DD1AE4B0A93472F01D9AD4B0A930323311C2361013399432160002680E080216068C900431CC3
:4014000001D1062309E0A26CE36C672F01D0472F04D1002800D0C0E101236360636831430093232321600191002106AA9B1802930FAB039310AB05930497A26CE36C0691C3
:40144000281CFFF7EEFE20233A1C0A909A43472A07D10F9BDA1C02DB626893422DDD023FFFB20F99652F12D8201C01393A1C50300F91FFF73AFF109A061C83182361012A7E
:4014800002DC2268D2072ED5013323612BE0662F14D16368002908DD2161002B02D12268D2071DD50133CB1811E0002B03D101222168114213D09A1C11E067270F9B10988D
:4014C000834206DB22682361D20709D50133236106E00122002B01DC0221CA1A8218226100260F9BA365232306AA9B181B78002B03D0231C2D2243331A70099B281C009379
:40150000211C089B11AA00F05FF9431C02D10120404256E12268530504D4281C08990A9A236916E1652F00D8D4E0A06CE16C0022002302F00FF800282BD00123281C089913
:40154000574A099EB047431CE1D00F9B109A934207DB2368DB0704D423689B0700D51AE113E1099E281C08990B9A0C9BB0470026431CCCD0109B013B9E42EDDA221C0123FB
:40158000281C08991A32099FB847431CBFD00136F0E70F9B002B2BDC0123281C0899404A099EB047431CB2D00F9B002B05D1109B002B02D12368DB07CED5099E281C089979
:4015C0000B9A0C9BB0470026431CA0D00F9B281C5B4208999E4208DA221C01231A32099FB847431C93D00136F0E70A9A109BB0E0109BA66D9E4200DD1E1C002E01DC0023DE
:4016000014E0331C281C08990A9A099FB847431CF5D17CE7221C0123281C08991A32099FB847431C00D172E70D9B01330D93F343A26DDB170D993340D31A9942EADB0A9BEE
:401640009E180F9B109A93420EDB2368DB070BD4109B0A9AD7180F9ABF1B9B1A9F4200DD1F1C002F09DC11E00C9B281C08990B9A099FB847431CEBD149E7321C3B1C281CD6
:401680000899099EB047431C00D140E7002315E0AE4E0000B24E0000B64E0000BA4E0000BE4E0000221C0123281C08991A32099EB047431C00D12AE70A9B01330A930F9AD7
:4016C000109B9A1AFB43DB173B40D31A0A9A9A42E8DB41E7109B281C0899012B02DC01231A423CD001230A9A099FB847431C00D10DE70C9B281C08990B9A099FB847431C98
:4017000000D104E7A06CE16C0023002201F022FF0023002812D10A9A109B0132013B281C08991DE0221C0123281C08991A32099FB847431C00D1EAE60A9B01330A93109B14
:401740000A9A013B9A42EDDB221C281C331C08995032099EB047431C00D0FDE6D7E60A9A099FB847431CEFD1D1E6221C0123281C08991932099FB847431C00D1C7E6013616
:40178000E368119A9B1A9E42EFDB119BE068984217DA181C15E00026F2E73143216001912321009006A8091802910FA9039110A90591002104970691281CFFF732FD0A903F
:4017C00047E613B0F0BDC046F7B5171C01930A698B6800900C1C934200DA131C221C3B6043321278002A01D001333B6023689B0602D53B6802333B60062523681D401ED0BE
:40180000231C43331B785A1E9341226892061CD53020E1184031C870211C5A1C45310978A21840320233D1700FE0221C0123009801991932089EB047431C0ED00135E3689A
:401840003A689B1A9D42F0DBDAE7221C009801994332089DA847431C02D10120404220E006232068E1683A6803400025042B03D18D1AEB43DB171D40A3682269934201DDE4
:401880009B1AED180027AF420ADA221C0123009801991A32089EB047431CDED00137F2E70020FEBDF0B58BB006920A1C43320793059004920A7E0C1C109B6E2A00D1A8E0D8
:4018C00011D8632A22D009D8002A00D1B2E0582A00D0C2E045310A707C4A4FE0642A1DD0692A1BD0B9E0732A00D1A7E009D86F2A29D0702A00D0B0E0202209680A432260C3
:4019000037E0752A1FD0782A33D0A6E00E1C1A684236111D196013683370A1E021681A68080606D4490604D5111D19600023D55E02E0111D19601568002D3BDA2D23049A1F
:401940006D42137036E021681A68080606D4490604D51568111D1960ADB202E0111D196015685A4B227E03930A276F2A1DD108271BE0221C782145321170554A196803923A
:40198000081D226818600D68100602D4500600D5ADB2D30702D520231A4322601027002D03D1202322689A432260231C002243331A7002E00A27454B03936368A360002B4B
:4019C00003DB0422216891432160002D02D1049E002B0ED0049E281C391CFEF7AFFF039B013E5B5C281C3370391CFEF721FF051EF1D1082F09D12368DB0706D56368226903
:401A0000934202DC3023013E3370049B9B1B23612BE009681A68080607D4490605D5111D19601368A28A1A8004E0111D1960136862691A600023049E236116E01A68111DB3
:401A4000196016680021301C626800F029FF002801D0801B6060636803E0261C42363270012323610023049A1370079B05980093211C069B09AAFFF7A7FE431C02D1012085
:401A8000404221E0236905980699321C079DA847431CF4D023689B0705D4099BE068984212DA181C10E00025E368099A9B1A9D42F3DA221C0123059806991932079EB04702
:401AC000431CDCD00135EFE70BB0F0BDC04E0000D14E000030B50C1C0223044317D080242406A14201D1002811D00A4B49004908094ACC180423944209D9084A013B9142E8
:401B000005D9074A0023914201D143424341181C30BDC0460000F0FFFFFFDF7FFFFF0F000000F07F0EB410B59DB002A9029008610B48822488604861012040421FABC881FD
:401B4000084804CBA400006801938C8101F0AAFA0023029A13701DB010BC08BC03B01847FFFFFF7F440100200023C25C0133002AFBD1581E7047F0B503690C6989B00026F5
:401B8000A3427CDB0B1C013C1433A50003935B190493031C143301935D19049B07911B680290591C28680593FEF742FE071EB74235D0039B01989C460596634604CB91B2D8
:401BC0007943120C7A4371180E0C9C46B318069302881E0C059B89B2D2180368521A190C6B461B8BCB1A11145B18191492B21B041A43049B059104C06345DED22B68002B20
:401C00000DD1231C019A043D954203D8029A1C1C136104E02A68002AF8D1013BF2E70298079901F059F8002828DB00200199039A013720CA0B881818ABB2C31A08682D0C6D
:401C4000000C451B1E14AD1928149BB22D042B4308C1049B9342ECD2019AA300D3181A68002A0BD1019A043B934202D8029B1C6104E01A68002AF9D1013CF3E73E1C301C72
:401C800009B0F0BDF0B5161C1F1C446A9BB00890239D06960797002C08D1102000F0F6FD089B5862446084600460C460089B5B6A196800290BD05A68012393404A608B6061
:401CC000089800F030FE0022089B5B6A1A60079B002B05DA01232B607B005B08079301E000232B60079CC64B221C17931A409A4219D1C44B229A1360069AC34B002A02D11B
:401D0000240300D1C14B249A181C002A01D100F0B6FDD978DA1C002900D005322499181C0A6000F0ACFD069E079F0022301C391C002301F00FFC051E0ED00123229A136023
:401D4000B34B249A181C002A01D100F098FDB14A24990A6000F093FD19AB009318AB01930898321C3B1C01F03DF861000A90490D09D03803A84C000B0443A848321C231C0F
:401D80000E1816951CE0189B199A9E18A44B9E4209DBA44BF018069BC340181CA24B9B1B9C40204304E0A148069B801B8340181C02F0C2FE9E4C021C0B190121013E1691F0
:401DC000101C191C00229B4B02F0CAFA9A4A9B4B02F02CF89A4A9B4BFEF7BCFD041C301C0D1C02F06DFE984A984B02F01FF8021C0B1C201C291CFEF7ADFD041C0D1C02F00C
:401E000029FE291C03900022201C002301F0A8FB00280DD0039802F053FE021C0B1C201C291C01F097FB43424341039AD31A039301231393039B162B11D8854ADB00D31812
:401E400018685968069A079B01F09EFB002805D0039B013B03930023139300E01390189B9E1B00230D93013E0E9604D50E9B5B420D9300230E93039B002B08DB039A0E9B15
:401E8000944663440E93002312920F9307E00D9B039A9B1A0D9353420F9300231293209B0125092B27D8052B02DD0025043B2093209B981E032823D801F042FA020E0410F5
:401EC000002300E001231093219B002B21DC01230B9309931A1C1AE0002300E00123039A10939446219B63440B9301330993002B12DC012310E0002310952093013B02E0CE
:401F000001231093023B00220B9309931333219202E0219B0B930993089A546A002262600432111C1431994204D86168520001316160F6E70898616800F0BDFC089B2060AD
:401F40005B6A1B680C93099B0E2B00D988E1002D00D185E1069B079C14931594039B002B30DD0F223A491340DB00CB185C681B6804930594039B02271D11EB060AD51498E0
:401F80001599344B15401A6A5B6A01F011FB0690079101372F4C002D0DD0EB0708D5049805992268636801F041FF0490059101376D100834EFE706980799049A059B01F081
:401FC000F7FA49E0039B02275D42002D46D0149815990F231E4A2B40DB00D3181A685B6801F024FF1B4C2D11002D35D0EB0704D522686368013701F019FF6D100834F3E7D5
:402000000000F07F0F270000EB4E0000E24E0000BE4E0000BF4E00000000F03F01FCFFFFEFFBFFFF120400000EFCFFFFEEFBFFFF000010FE0000F83F61436F63A787D23F68
:40204000B3C8608B288AC63FFB799F501344D33FF84E0000C04F000006900791139B002B1ED0069C079D0022201C291CCE4B01F077FA002814D0099B002B11D00B9B002B3C
:4020800000DCE9E0039B291C013B1193201C0022C64B01F0CBFE0137069007910B9D02E0039B099D1193381C069B079C0493059402F006FD049A059B01F0B8FE0022BC4BEC
:4020C000FEF748FC06900791069E079F079BB94A9C18002D1CD1049805990022B64B02F03FF9321C231C0490059101F04DFA002800D063E204980599321CB04E079CB446E6
:402100006444231C01F02CFA002800D04CE2A3E0AB4A6B1E1099DB00D31800294ED01A685B680020A74901F043FA321C231C02F017F9049E059F0C9B069007910493391CAB
:40214000301C02F087FC041C02F0BAFC021C0B1C301C391C02F004F9049B303401330493013B1C70069A079B061C0F1C01F0F8F9002800D061E3321C3B1C00208A4902F034
:40218000EFF8069A079B01F0EBF9002800D0CDE0049B0C9A9B1AAB425EDA069807990022824B01F043FE0022069007917F4B301C391C01F03BFE061C0F1CC0E718685968E4
:4021C000321C231C01F032FE049E059F0C9C0690079163190493391C301C02F03BFC051C02F06EFC0B1C021C391C301C02F0B8F83035049B25700134061C0F1CA34224D13E
:402200000022069807996F4BFEF7A4FB021C0B1C301C391C01F0B8F9002800D086E0069A079B0020674902F09BF8021C0B1C301C391C01F095F900280ED0049B013B1A789B
:40224000302A00D0F9E20493F7E70022574B01F0EDFD061C0F1CBEE7149B159C06930794199B002B00DA86E0039A0E2A00DD82E0D300534AD3181E685F68219B002B14DA0F
:40228000099B002B11DC00D090E1301C391C0022494B01F0CBFD069A079B01F07FF9099F3E1C002800D083E18CE10C9B069C079D0493321C3B1C201C291C01F079F902F09C
:4022C000C9FB069002F0FCFB321C3B1C01F0AEFD021C0B1C201C291C02F042F80B1C0499021C0698013104913030013908700C980499091A099881422ED1101C191CFEF7F2
:4023000029FB321C3B1C041C0D1C01F03DF9002810D1201C291C321C3B1C01F01BF9002800D18CE2069BDB0704D488E2119B039300E00493049B013B1A78392A08D10C9AFC
:402340009342F6D1039B0133039330231370131C1A7801321A7072E2101C191C0022134B01F064FD00220023041C0D1C01F0F2F800289ED063E2109A002A44D0209A012A6D
:402380000BDC169A002A02D00F4A9B1802E03623189A9B1A0F9D0D9C29E0099B5D1E0F9BAB4213DB5D1B18E00000F03F0000244000001C400000C0FC000014400000C07C2F
:4023C000F84E00000000E03F330400000F9B0F95EA1A0025129B9B181293099B002B04DA0D9B099A9C1A002301E00D9C099B0D9A0898D2180D920E9A0121D3180E9300F0B0
:4024000031FB061C02E00F9D0D9C109E002C0CD00E9B002B09DDA34200DD231C0D9AE41AD21A0D920E9AD31A0E930F9B002B21DD109B002B18D0002D10DD311C2A1C089862
:4024400000F0A6FB061C0A9A311C089800F013FB071C0A99089800F066FA0A970F9B5A1B08D008980A9902E008980A990F9A00F08FFB0A900898012100F0F4FA129B071C37
:40248000002B0ADD391C1A1C089800F081FB209B071C0025012B1BDC03E0209B0025012B12DC0025069BAB420ED1079B1B03AB420AD1179B079A134206D00D9B01350133C6
:4024C0000D930E9B01330E93129B0120002B08D03B6903339B00FB18586800F079FA2023181A0E9BC0181F23184009D001331B1A042B02DD1C23181A03E0042B08D0181CD3
:402500001C300D9B24181B180D930E9B1B180E930D9B002B05DD08980A991A1C00F08AFB0A900E9B002B05DD391C08981A1C00F081FB071C139B002B1ED00A98391C00F0C0
:40254000CBFB002818DA039B0898013B03930A9900230A2200F000FA109B0A90002B00D17FE1311C002308980A2200F0F5F90B9B061C002B3CDC7DE1099B002B2EDC209BD7
:40258000022B2BDD099B0B930B9B002B10D1391C0898052200F0E0F9071C0A98391C00F09BFB00280EDC03E02F1C00E000273E1C219BDB4303930C9B04930CE02F1C2E1C9D
:4025C000119B03930C9B0C9A0133049331231370039B01330393099600261AE1109B002B04D1099B0B930C9D0A9CD0E0099B0B93002C05DD311C0898221C00F01BFB061CF3
:402600000996002D12D07168089800F054F9311C041C33690C319A1C92000C30FEF7F0FD0898211C012200F005FB09900C9B0C9A0E930B9B0A9C013BD3181093391C201C6C
:40264000FFF799FA031C0F903033311C201C0D9300F042FB391C0B90099A089800F057FB01230493C368051C002B04D1201C291C00F032FB04900898291C00F054F9049BEB
:40268000209A134310D1069A013313420CD10D980A9439283DD00B9B002B01DD0F9831300E9B013304933EE00B9B002B05DA049B0D9D0A94002B09DC1CE00B9D209B1D43C3
:4026C0001ED10123069A13421AD1F0E7211C0898012200F0AFFA391C0A9000F0FDFA002803DC07D10D9BDB0704D50D9B392B10D01D1C01350E9B013304930E9B1D7088E0F2
:402700000E9B5D1C049B002B10DD0D9B0A94392B06D10E9B0E9A013304933923137060E00D98049501300E9B187072E06A463421521812780E9B04951A70109A93423FD0BF
:40274000211C0A220023089800F006F9099B041C311C08980A229E4205D1002300F0FCF8061C09900AE0002300F0F6F80999061C0A220898002300F0EFF809900E955DE7F4
:40278000211C08980A22002300F0E6F8041C201C391CFFF7F0F934226B4630309B180D901B780B9A2B700C9B0135EB1A9342E7DB131E00DC0123099600260C9AD31804936E
:4027C000211C0898012200F035FA391C0A9000F083FA002805DC15D10D9BDB0701D411E00493049B013B1A78392A08D10C9A9342F6D1039B013303933123137009E0013242
:402800001A7006E0049B013B1A78302A01D10493F8E70898391C00F086F8099B002B0ED0002E05D09E4203D00898311C00F07BF80898099900F077F801E0119B039308989F
:402840000A9900F070F80023049A0C981370039B229A01331360249B002B10D0049A1A600DE00B9B002B00DDBDE6209B022B00DD8AE6B8E6209B022B00DD85E6B8E61BB0E8
:40288000F0BDC046004870474801002008B5034B011C186800F04EFB08BDC04644010020C9B28218904204D003788B4202D00130F8E70020704770B5466A041C0D1C002EE4
:4028C00007D11020FFF7E2FF6062466086600660C660666AF368002B09D0626AAB00D268D318186800280ED002681A6017E0201C0421212200F0CAFA636AF060DB68002B10
:40290000EBD100200EE001210E1CAE40721D9200201C00F0BBFA0028F3D04560866000230361C36070BD70B5456A061C0C1C002D07D11020FFF7AAFF706245608560056091
:40294000C560002C07D0726A6368D2689B00D3181A6822601C6070BDF7B51E1C14239C46071C0C1C00200D698C44634619881B6851431B0C534389190E0CF31889B21E0C21
:402980001B045B186146013008C18C46A842ECDB002E1BD0A3689D4212DB6368381C591CFFF789FF211C236901909A1C0C3192000C30FEF725FC211C381CFFF7B4FF019C57
:4029C0002B1D9B00E31801355E602561201CFEBD0022031C010C914201D103041032190E01D108321B02190F01D104321B01990F01D102329B00101C002B03DB20205B0097
:402A000000D5501C70470722036810B5011C1A400CD001240020234223D10222134203D0E340201C0B601CE09B0818E098B2002801D110221B0CD8B2002801D108321B0A27
:402A4000180701D104321B09980701D102329B08D80704D45B082020002B02D00132101C0B6010BD10B50C1C0121FFF724FF01234461036110BDF0B50B69141C126989B0B6
:402A80000D1C934201DA251C0C1C2F692669AA68BB1969680093934200DD0131FFF70BFF011C009B1431844698000B1C0818834202D2002204C3FAE71435BF00EB19143422
:402AC000B6000493A31902950693069B9C4256D223880393002B22D00E1C0027029B0193019B039D04CB059601933388079393B26B43079D120CEB183568DB192F0C039D63
:402B00006A43BA181F0CD219170C9BB21204134308C6019A049B9A42E2D3059B5F6023681B0C019321D000220D1C0B68029F03923E88019A9BB256432A680595120CB218A6
:402B4000039E9219160433432B6008CF019E1B0C7343AE88120C9B199B181A0C0392049A0435BA42E4D8059A536004340431ACE704380368002B05D1009B013B0093009B97
:402B8000002BF5DC63466046009A1A6109B0F0BD0323F7B51340051C0E1C141C002B07D0224A013B9B009A580023FFF7D5FE061CA310019337D06C6A002C07D11020FFF71C
:402BC00065FE6862446084600460C4606F6ABC68002C10D1281C1649FFF744FF0023B860041C036007E0019B5B1001931BD0206800280FD0041C019BDB07F4D5311C221C06
:402C0000281CFFF738FF071C311C281CFFF78BFE3E1CE8E7281C211C221CFFF72CFF002320600360E6E7301CFEBDC046E84F000071020000F0B50C1C171C2369551185B036
:402C4000EB180193013300934968A3680290009A9A4202DD01315B00F9E70298FFF72BFE021C061C00231432AB4204DA0020990050500133F8E7EB43DB171D40231CAD00E4
:402C800055192269143392009A1894461F22174014D00132D21B039200221968281CB9400A4304C504CB0399CA409C45F5D84260002A07D0019B0233009303E004CB04C5EA
:402CC0009C45FBD8009B0298013B3361211CFFF72AFE301C05B0F0BD03690A6910B59B1A041C181E12D1930014341431E218C918043A043913680868834204D083429B41E5
:402D00000120184302E0A242F2D8002010BDF0B5071C85B0081C0C1C111C151CFFF7DCFF061E07D1381C311CFFF7C5FD01234661036155E000230193984204DA231C2C1C73
:402D40001D1C01230193381C6168FFF7B4FD019B26692F1CC3601434B300E318021C02932B69002514379B00FB180393143208CC69469C4608CF0432009363468B808B8802
:402D80005D19009B9BB2EB1A65460193009B2D0C190C019B691A1D14131F9C466B4649199B880D1409040B4361460B60039B9F42DDD30299131C8C420BD208CC99B249192B
:402DC0000D141B0CEB181D1489B21B040B4308C2EFE7043B1A68002A01D1013EF9E7066105B0F0BDF7B51D1C0121089F141CFFF762FD2B036D00061C1B0B6D0D02D0802266
:402E0000520313430193002C18D068460094FFF7FAFD009C002809D02023019A191A131C8B40C24023437361019200E07461019CB461631E9C410134346107E001A8FFF784
:402E4000E2FD0124019B346173612030002D06D00B4BED1835232D183D60181A0BE0094BC018094B3860E3189B00F3185869FFF7AFFD6401201A099B1860301CFEBDC04660
:402E8000CDFBFFFFCEFBFFFFFFFFFF3F4A4338B5111C141C00F04EF8051E03D00021221CFEF7B7F9281C38BD30B500293ED004390B68002B00DAC9181D4A1368141C002B1A
:402EC00002D14B60116031E099420DD208680A189A4203D11368C3180B6053684B60216024E08A4203D8131C5A68002AF9D11D685C198C420BD1096869185818196090424D
:402F000014D110685268091819605A600EE08C4202D90C23036009E008680C18944203D114685268001908604A60596030BDC046C0010020032370B5CC1C9C430834051C79
:402F40000C2C01D20C2405E0002C03DA0C2300202B6042E08C42F9D3204A1368101C191C002913D00A68121B0DD40B2A02D90A608B181FE08B4202D15A6802601BE04A6833
:402F80005A600B1C17E00B1C4968E9E7144E3368002B03D1281C00F07BF93060281C211C00F076F9031C421CD0D00322C61C964386420AD11C60181C07210B301A1D8843C8
:402FC000821A0AD05142995007E0311A281C00F05FF9431CBAD0331CECE770BDC0010020BC010020F0B58E6885B0071C0C1C03920193B34245D390238A89DB001A423DD0D0
:4030000003250969236801985B1A029363695D43EB0F5D19029B6D1001331B189D4200D21D1C381C53050FD5291CFFF783FF061E13D0029A2169FEF7E3F8A289184B134056
:4030400080221343A38111E02A1C00F047F9061E0CD1381C2169FFF727FF0C23402201203B60A38940421343A38117E0029B2661F61826606561019EED1AA560019BB342AC
:4030800000D2019E321C2068039900F013F90020A3689B1BA36023689E19266005B0F0BD7FFBFFFFF0B59FB0029005938B890E1C171C1B0610D50B69002B0DD14021FFF742
:4030C00039FF30603061002804D10C23029A01381360D0E040237361002306AD6B6120336B761033AB763C1C2378002B03D1E31B049312D003E0252BF9D00134F4E7049BCE
:403100000298311C3A1CFFF76DFF431C00D1ACE06A69049B944663446B612378002B00D1A3E00122002352426A6002A95432521801342B60EB60AB601370AB654F4F21783C
:40314000381C0522FFF7ACFB002808D0C01B01278740381C2B68013418432860EEE72B68DA0604D55322202102A8121811701A0704D553222B2102A81218117022782A2A44
:4031800001D0099B0EE0059A111D12680591002A01DB099204E05242EA60022213432B60013409E02278303A092A04D80A214B4301349B18F6E7099323782E2B18D1637864
:4031C0002A2B09D1059B02341A1D1B680592002B0DDA01235B420AE0002301342278303A092A04D80A214B4301349B18F6E70793234F2178381C0322FFF752FB002807D073
:40320000C01B40278740381C2B6801341843286021781C480622671C2976FFF741FB002812D0194B002B06D10722059B073393430833059314E005AB00930298291C321C8D
:40324000124BFEF783F807E005AB00930298291C321C0E4BFEF726FB0390039B013304D06B69039A9B186B613DE7B3890B985B0601D5012040421FB0F0BDC046F44F0000F0
:40328000FA4F0000FE4F00004D130000E52F000038B50023064C051C081C2360FDF720F8431C03D12368002B00D02B6038BDC046C401002010B5814208D28B18984205D2F4
:4032C0009B1A013A09D3995C8154FAE70023934203D0CC5CC4540133F9E710BDF8B5061C0C1C151C002904D1111CFFF723FE041C18E0002A03D1FFF7D7FD2C1C12E000F0F7
:4033000013F8A8420ED2301C291CFFF713FE071E07D0211C2A1CFDF773FF301C211CFFF7C3FD3C1C201CF8BD0B1F1A68101F002A04DA891804390B68D018043870470000A4
:4033400002B4714649084900095C49008E4402BC7047C04603460B437FD4002243088B4274D303098B425FD3030A8B4244D3030B8B4228D3030C8B420DD3FF22090212BA5A
:40338000030C8B4202D31212090265D0030B8B4219D300E0090AC30B8B4201D3CB03C01A5241830B8B4201D38B03C01A5241430B8B4201D34B03C01A5241030B8B4201D311
:4033C0000B03C01A5241C30A8B4201D3CB02C01A5241830A8B4201D38B02C01A5241430A8B4201D34B02C01A5241030A8B4201D30B02C01A5241CDD2C3098B4201D3CB01DA
:40340000C01A524183098B4201D38B01C01A524143098B4201D34B01C01A524103098B4201D30B01C01A5241C3088B4201D3CB00C01A524183088B4201D38B00C01A524165
:4034400043088B4201D34B00C01A5241411A00D201465241104670475DE0CA0F00D04942031000D34042534000229C4603098B422DD3030A8B4212D3FC22890112BA030A0B
:403480008B420CD3890192118B4208D3890192118B4204D389013AD0921100E08909C3098B4201D3CB01C01A524183098B4201D38B01C01A524143098B4201D34B01C01A32
:4034C000524103098B4201D30B01C01A5241C3088B4201D3CB00C01A524183088B4201D38B00C01A5241D9D243088B4201D34B00C01A5241411A00D20146634652415B10E1
:40350000104601D34042002B00D54942704763465B1000D3404201B50020FDF719FA02BD0029F8D003B5FFF715FF0EBC4243891A1847C0468446101C62468C46191C634640
:4035400000E0C0461FB500F00BFC002801D40021C8421FBD10B500F04FFB4042013010BD10B500F0FDFB002801DB002010BD012010BDC04610B500F0F3FB002801DD0020BC
:4035800010BD012010BDC04610B500F079FB002801DC002010BD012010BDC04610B500F06FFB002801DA002010BD012010BDC046F0B55F4656464D464446F0B40F0387B048
:4035C00098464D003B0BCC0F061C924681469B466D0D01946BD0664B9D4235D080275B467F031F43F3009946624BFF00400F9C4607430023BB4600266544009342461703B1
:403600005000D20F53463F0B400D904600D172E0574A904267D080235B031F435346554A5B0FFF001F43944653460021DB0060444246624092462D1A0E430F2E00D9A1E0DC
:403640004D48B600805987465B461E4300D076E000239B469946023308260093CEE799464346BB4601930091009B022B6BD1019B9A46002153460122002789461A403C4BE1
:4036800000213F030C0D24053F0B27433B4C1B0527401F437F00D2077F0817434846391C07B03CBC90469946A246AB46F0BD03433ED05B46002B00D19CE15846FDF756FDE8
:4036C0002823311C1B1A021C5F46D940083A97400B1C96403B439B46B1460023284D00262D1A00938AE7524603213A43A0D10027002302219CE752463A4315D0002F00D118
:4037000085E1381CFDF732FD021C28215046891A131CC8405146083B99409F400B1C074317480021801A83E70027002301217FE700239B4699460133042600935EE703233D
:403740000C2600935AE7032B00D13CE2012B00D0BFE11A1C019B1A4000210023002789468EE700238027994600223F03004B87E7FF07000001FCFFFF08500000FFFF0F8003
:403780000DFCFFFFBB4500D951E100D14CE14A46039200225C469046013D180E3F0238431B020193030C994603041B0C4946061C201C1F1C0093FDF73BF8021C7A430290FE
:4037C0004946201C171CFDF7B9F8039B09041B0C19438F420CD9029B8919013B8E4200D952E18F4200D84FE1029B8919023B0293CC1B201C4946FDF71BF8009F8346474356
:403800004946201CFDF79AF8039A0B041404240C23439F420DD95A469B19013A9E4200D930E19F4200D82DE10222524294469B19E344029ADB1B17045A463A439346019C49
:40384000170C220C101C04925A4611042204120C141C090C7C4305924A43414347436118100C09188C4203D980204002844667440C0C12040804120C3C198118A34200D252
:40388000E5E000D1DFE01F1B43465C1AA04592415242BF1AB74200D10EE1381C4946FCF7C7FF009B029043434946381C9846FDF745F8230C0F041F43B8450CD9029BBF1960
:4038C000013BBE4200D9FBE0B84500D8F8E0029BBF19023B02934346FF1A4946381CFCF7A7FF009B039043434946381C9846FDF725F824040904240C214388450CD9039B27
:403900008919013B8E4200D9DCE0884500D8D9E0039B8919023B03934346C91A029B039A1B04059C1A43100C13049146221C049F1B0C5A4344437B437843E318170CDB194F
:403940009C4203D980246402A44660441C0C12041B04120C00199B18814200D296E000D1FCE04A4601231A4391469B4BEB18002B00DC99E04A4652070AD00F2249460A40D8
:40398000042A05D00431494592418946524293445A46D20106D55A46904B1A4080239346DB00EB188E4A934200DD62E64A465946D208490711435A468946570251460122B6
:4039C0005B053F0B5B0D0A405AE680205A460003024208D0074206D107433F0399463F0B4246804B4CE65F4607433F033F0B221C7C4B45E6FDF7BAFB031C2030272800DC84
:403A00005EE6083B9E400023B346994665E65046FDF7ACFB021C2032272A00DC75E657460838874000237BE6994500D2AFE65A46594654084A46C8075208024303924A4687
:403A4000D2079046A9E60027884500D31CE7019F5A46BC46E044B845BF417F42BF19FF18013ABE4206D2BC425FD800D19FE03F1B934609E7B742FAD1019B4345F3D9371B6A
:403A8000934601E79346D4E60293B1E64A468919013A8E4218D99146814200D061E7019A9A4200D05DE760E74F4F7F1B382F13DD012253461A404FE601235B42994654E71F
:403AC000029308E7039327E788423CD874D0914647E7019B9A4648E71F2F44DC434B4A469C465B466544FA40AB4013434A46AA40151C6A1E95415A46FA402B43171C5A07B4
:403B000009D00F221A40042A05D01A1D9A429B415B42FF18131C3A023ED55346012200211A40002701238946AAE502235B429C46019AE3449446E04490459B415B429B19B7
:403B4000DF193F1BA0E6019F4A467C00BC42BF417F42BF19023AC91901949CE7002B95D1002201929BE75A46214B5B1BDA40202F27D0204B9C465B466544AB4049460B43EB
:403B8000591E8B411343072200271A4007D00F2200271A40042AB8D17A077F023F0BDB0813439946012253461A40002368E54145BBD89346002767E6019C9C42C3D391464A
:403BC0006DE70023DAE780275B463F031F433F033F0B019A034B53E5FF030000FFFFFFFEFE070000FF07000002FCFFFF1E040000E2FBFFFF3E040000F0B55F464D4644464A
:403C00005646F0B41F035C00DB0F99461B4B0E034D00C90F8446360B6D0D8B4690463F0B640D9D420CD0154B9C4210D00123A54214D0181C3CBC90469946A246AB46F0BD4B
:403C4000311C01230143F4D10C4B9C42EED13A430123002AEDD10123A542EAD1BE42E8D1C445E6D1CB4506D0002DE2D13043031C581E8341DDE70023DBE7C046FF070000C7
:403C8000F0B5574645464E46E0B40F034E00C90F8A4632491D035C0084463F0B760D90462D0B640DDB0F8E420FD08C4239D0002E10D13843414241418946002C27D12A439B
:403CC00025D1002000290ED108E0391C01432ED1B44226D0002C0BD09A450DD05346594201231943081C1CBC90469946A246F0BD2A43F3D09A45F1D1A642EFDC1ADA50466F
:403D000041424841012341421943081CEBE74A46002AE1D058425841012241421143081CE1E7291C114302D1002EC2D0D4E702204042D8E7AF42D1D809D00020AF42D2D288
:403D4000504641424841012340421843CBE7C445C4D80020C445F3D3C5E7C046FF070000F0B55F464D46444656468046F0B4061C0803000B84462C484C001F035D00C90F1C
:403D8000640D8B4691463F0B6D0DDB0F844212D0854225D0002C14D161460E4370424641002D35D0002E21D058425841012143420B43181C0EE06146022031430AD1A542FC
:403DC0000ED0002D12D13A4310D15B46594201231943081C3CBC90469946A246AB46F0BD391C02201143F5D1002CD5D09B45ECD1AC42EADC05DBBC45E7D80FD00020BC4511
:403E0000E8D2584641424841414201200843E1E73A43C7D10020002EDCD1D6E7C845D4D80020C845EDD3D5E7FF070000F0B55F4656464D464446F0B4051C061C080387B006
:403E400099464F00030BCC0F92469B467F0D019467D06C4B9F4236D080205B4640031843C0006B0F1843684B83469C4600239846EE00674400934B4649461D03C90F5B000A
:403E800052462D0B5B0D894600D16EE05D498B4264D080205C4940038C4600210543ED00500F0543D20063444846FF187B1C9A46009B604002900B430F2B00D9ACE05348F4
:403EC0009B00C3589F465B461D4300D082E00823009300239B46023300269846CBE7029B01934346022B59D1012400250026019B1C40444B00212D030A0D12052D0B154330
:403F0000434A1B0515401D436D00E4076D082543301C291C07B03CBC90469946A246AB46F0BD2B434ED05B46002B00D185E15846FDF71CF9021C2823291C9B1A161C584606
:403F4000D940083EB0400B1CB54003439B462E1C0023304F0093BF1A98468CE7514629432ED10025002202219EE75146294323D0002D00D154E1281CFDF7F8F8031C28215C
:403F80005046C91A1A1CC8405146083A914095400A1C05431F480021C31A85E7032B00D1C2E1012B00D06DE14446019B00251C40E4B2002300269DE700250022012173E7D3
:403FC000032171E70423009300239B4601330026984650E70C230093093B98464BE7802500242D030026074B84E74B46AB46161C0193884675E7029BAB46161C0193884692
:404000006FE7C046FF07000001FCFFFF48500000FFFF0F800DFCFFFF330C3604360C9C46331C140C1204120C53439846634653439946634663430193331C41466343090CB1
:404040004B445B18994505D9802040028146019949440191190C039141460904090C1B045B1804932B0C9846331C2D04290C4B43604600934346654658435E43009B4D4369
:404080001B0C9946AE194E448446B54203D980235B029946CC44350C2B1C0398634484460593009B36041B041B0CF3189C446046039058460504060C280C84465043351C0F
:4040C00081466046654344434846000C8346724314195C44A24203D98022520293465D44220CAD184A461204120C24044046A41862464A4371434643604600964646704301
:404100008046100C84468844E044414505D9802149028C46009961440091019803998446614499429B415B4299460598434684461204120C1B049B1863449C46AB468342E6
:404140009B4140460A19CC44A2428941E344CC45B6415C46000C8046494276425B426418334398448C428941AB459B4149425B4219430D1C009B4544EE187602E50D2E4395
:40418000B346049B56021E43731E9E415B46D20D324366021643DB010AD50123334076081E435B46DB071E435B465B089B465746634BFB18002B5ADD720709D00F223240D9
:4041C000042A05D0321DB242B6417642B344161C5A46D20106D55A465A4B1A4080239346DB00FB18584A934234DD0124029B00251C400026554B7DE680205B4600030342CD
:4042000008D0054206D105432D032D0B4C46161C4E4B6FE65D4605432D032D0B4B4B69E65046FCF7A3FF031C2033272B00DCA6E65546083885400022ACE6281CFCF796FF77
:40424000021C2032272A00DC75E6083885400026AB467DE65A46F608520716435A4601245502029A5B052D0B5B0D144042E6384DED1B382D0ADD0124029B00251C40002601
:40428000002337E6019B5746029391E71F2D25DC304B321C9C466744BE405B46BB40371CEA407E1EB74113433B431E1C5B46EB401D1C730709D00F233340042B05D0331DCB
:4042C000B342B6417642AD191E1C2B0220D50124029B00251C40002601230BE65A461E4BDB1BDA40131C202D1CD01C4A94465A466744BA40171C3E43721E96411E430723CE
:404300000025334007D00F2300253340042BD6D16B076D022D0B0124F6081E43029B1C400023E7E50027E6E780255B4601242D031D43019B2D0323401C1C2D0B034BD9E54F
:40434000FF030000FFFFFFFEFE070000FF07000002FCFFFF1E040000E2FBFFFF3E040000F0B54D4644465F465646F0B40E1C111C3203520A470F1743C5001A035800DB0F97
:404380009946520A4B0F83B01A43CB000193CF4B7400F60F640DB046400D984200D1E8E00123494659400B1C9E4200D1B1E0261A002E00DC1CE1002842D1131C01990B4371
:4043C00000D0E6E06B0700D18EE00F232B40042B00D189E02A1DAA42AD418023012641466D427F191B043B400E40151C002B00D183E0B64B01349C4200D116E13A1CB44B0E
:40440000ED081A405007640552020543120B640D002112030B0D1B056405120B1A436308AC4CF60714401C43640064083443281C211C03B03CBC90469946A246AB46F0BD31
:40444000A24B9C42BED080231B041A43382E00DD03E11F2E00DD3FE12020831B9946131C49468B409C46019B6046F34003430198F2408840011C481E81410B43EB1A9D4266
:4044800080411D1CBA1A4042171A3B0200D4A8E07A02560A002E00D1CAE0301CFCF766FE031C083B1F2B00DDCBE02822291C121AD1409E400A1C9D4032439C4200DDC8E001
:4044C0001C1B671C1F2F00DDEDE01F23291C1C1B131CA540A340F9406C1EA541FA4019430D43171C00246DE78023012642461B043B401640002B00D07BE7744BED08780749
:404500000543FA089C423BD012036405120B640D7EE7231A9A46002B00DCA5E0002844D06A48844200D14DE78020000402435346382B00DC1CE1019B1A43511E8A41D1B201
:4045400000224919A94280410D1CD219404217183B0246D55D4B01349C4200D169E101205B4A6B083A4028401843D5070543570828E7131C01990B4300D111E74B4613E7A5
:404580002B1C134351D080231B031A431203120B3EE7013E002E00D080E0691A8D429B41BA1A5B42D71A0D1C6FE7101C019B184300D107E701235B429C46E2445346002BAD
:4045C00000D002E1019BD2195919A9429B415B42D7180D1CBCE76346034300D128E1071C65466B0700D0F0E6012643461E4084E7002E00D081E0601C4005400D012800DC56
:4046000007E10199681A84466545B641B81A7642861B300200D4A1E08C464D1BAC458941D21B4942561A984634E700220025EFE6281CFCF79BFD2030031C083B1F2B00DCC0
:4046400033E7021C283A95402A1C00259C4200DC36E71F4FE41A1740B4E6019B1A43511E8A41D3B2002209E7002B00D001E1601C43055B0D012B00DCB0E0144B984200D1B7
:404680001EE1019BD2195919A9429B415B42D2184908D5070D435708041C93E60B4B9C4200D0D3E68EE6211C131C1F39CB40191C202F00D18EE03F231C1BA24015436A1E21
:4046C000954100270D4300248BE7C046FF070000FFFF7FFFFFFF0F80331C101C203BD840202E79D040239B1B9A40131C019A1343591E8B4100220343C0E6002C53D0C74C77
:40470000A04200D1B0E0802471428946240427434946382900DDCDE01F2900DD59E120243E1C611A8E408A46B04649462E1CCE405146B4468D4064464646494626436C1EFB
:40474000A541CF4035430199D71B8C464D1BAC4592415242BF1A041C984696E663466546334300D096E60026002700240025C4E61F2B61DC2020C31A9B46131C59468B40E7
:4047800051469946019BCB409C464B46604603439C465B46019999406346481E814119435346DA40CDE63C1C2C435DD0F1438946002955D10199D21B8C464D1BAC45894132
:4047C0004942571A041C98465FE69448844200D0ADE6F7E5002271E7002387E73B1C2B43002C00D0DAE0002B00D113E1131C01990B4300D1E6E54919A9429B41D2195B42BF
:40480000D7183B0200D421E1854B0D1C1F40041CD8E5381C2843002C40D1002800D083E0101C0199084303D0171C0D1C9846C9E500260027002560E65046131C2038C34046
:40484000181C5346202B00D1C1E0402351465B1A9A40019911434A1E91410022014370E66E4CA04200D053E7171C019D041C9846A8E5002C28D13C1C2C4300D18AE0DB433A
:404880009A46002B00D082E0019BD2199C4665449D42894149425718041C59E600285BD1101C0199084300D1A4E0171C0D1C98465A4C87E53D436F1EBD410027EDB242E7A7
:4048C000041C0027002518E6544CA04262D0534680245B429A46240427435346382B00DD8EE01F2B00DD9DE02024E31A9B463B1C59468B40514699462B1CCB409C464B4645
:40490000644623439C465B469D4063466C1EA541CF401D43019BBF189C4665449D4292415242BF18041C13E6101C0199084300D148E5681A844685428041BE1A4042301AC4
:40494000060200D447E68C464D1BAC458941D21B4942571A984635E5101C0199084334D080247807ED08FF0824032843274208D0D608264205D1C90852070A43101C371C3F
:404980009846FF00420F1743C500244C1AE5234CA042A2D1171C019D041C13E5002B35D0131C01990B4310D080247807ED08FF08240328432742E4D0D3082342E1D1C908D6
:4049C00052070A43101C1F1CDBE7144CFAE400223FE74C463E1C203CE6404946341C202932D04026761AB7403D436F1EBD4100272543A8E680270026FF03084C00257CE50C
:404A00003D436F1EBD410027EDB283E7171C019D024CD7E4171C019DD4E4C046FF070000FFFF7FFF54463B1C203CE3401C1C5346202B0DD0402351465B1A9F403D436F1E8C
:404A4000BD410027254365E70027CDE70D1CC8E50027F3E70B0330B5134C1A0B4B00051C5B0DC90F0020A34210DD104883420EDC80200F4C40030243E41A1F2C0ADD0D4887
:404A8000C31ADA40131C48424340581830BD0A4BC818FBE7281CE040084CA44663449A40131C0343EFE7C046FE0300001D0400003304000013040000FFFFFF7FEDFBFFFF09
:404AC00038B5041E16D0C50F00D04442201CFCF74DFB174B1B1A0A2821DC021C211C153291400A1C0B21081AC4405B052403240B5B0D03E000250023002400220021101C93
:404B000024030A0D1205240B14430A4A1B0514401C436400ED0764082C43211C38BD0B3884405B052403240B5B0D0022E6E7C0461E040000FFFF0F8010B5041E10D0FCF78B
:404B400015FB144A121A0A281ADC0B23211C1B1AD94015300B03520584401B0B520D01E00022002300211B03201C1C0B0B0D1B052343094C1205234013435B00590810BDB3
:404B8000031C0B3B9C40520523031B0B520D0024E8E7C0461E040000FFFF0F800000000048656C6C6F20776F726C64200A200D00256400002566000080300F4080030040A1
:404BC0000F40000400300F40FC4D00008000000003000F4011300F4036310F406B320F4047330F4004400F4003410F4002600F4080728138830F82018E0490089A029E01D1
:404C0000A602B001B202B404B608BB02BE45D418D804D904DB04DF010201036804020601088009010A240D220E0110801360150819A21A011B081D101E021F05210423483A
:404C4000274029242A013110334A38203A023B4040D1430249A0500151205B085D02670A69146A80709071047206732080108340C09FC2DFC42BCA07CC0FCE0DD00BD20CEB
:404C8000D682D8300010018002AC0313041408DC0A220B081203130C140C152C167117431E20200922D02410264029712B0E2D712F06301F32E03330350F37C039883A08F3
:404CC0003B203F044002464049FF4A074BFF4C404D204EF04F055008580459045A045F01604061A86240632081018208830A840A850286148709882089138AC08E15901397
:404D0000920C9480962098139A049D10A003A120A214A4E0A513A8E0AB04AC40AE20B00FB110B320B4E0B503B610B70CBA02BE40BF44C054C103C5EBC60CC807C9FFCAFF2F
:404D4000CBFFCEF0CF44D00CD401D804D904DA04DB04DF01E6C0EA40EB020004012002800302050607080A600B080D0A0F021090111412011610170119A21A401B201D0ADC
:404D80001F0C204122142304240426802729281029212C022E402F083240370939103A013B043C203F02430A472048024905508054105610570359815A085B108C808F10F3
:404DC00091149280944196209A01A502A720A921AA01B601C07FC2BEC43FCA37CCC8CEA7D023D208D60FEA100A405F02C210D680AA40B702E820100111010000FF10000014
:404E0000C30000000F08F000413C0042F3000C03823C004104000004007FF30008040000001800000C6700181C00E300C01F2C400F201C000008280200000010640305007C
:404E40000100E0C028FFFFFF62A0F0410C00000000000212040404040000000100000000000040020010301000101012000000000000000000000000000000000304050632
:404E80000708090A0B0C0E0F101112131415161718191B1C1D1E1F2021222325262728292A2B2E2F30313233343500004300494E4600696E66004E414E006E616E0030006D
:404EC00030313233343536373839414243444546003031323334353637383961626364656600496E66696E697479004E614E00504F534958002E0000000000000000F03F77
:404F0000000000000000244000000000000059400000000000408F40000000000088C34000000000006AF8400000000080842E4100000000D01263410000000084D797410C
:404F40000000000065CDCD41000000205FA00242000000E876483742000000A2941A6D42000040E59C30A2420000901EC4BCD64200003426F56B0C430080E03779C34143F5
:404F800000A0D8855734764300C84E676DC1AB43003D9160E458E143408CB5781DAF154450EFE2D6E41A4B4492D54D06CFF08044F64AE1C7022DB544B49DD9794378EA440E
:404FC0000080E03779C34143176E05B5B5B89346F5F93FE9034F384D321D30F94877825A3CBF737FDD4F157505000000190000007D000000232D302B2000686C4C006566E1
:4050000067454647000000008437000072360000583700005E3600005837000062370000583700005E3600007236000072360000623700005E3600006836000068360000AD
:4050400068360000CA39000018400000F63F0000F63F0000EA3F0000DE3E0000DE3E0000DE3F0000EA3F0000DE3E0000DE3F0000DE3E0000EA3F0000E23E0000E23E000068
:40508000E23E0000F8410000F8B5C046F8BC08BC9E467047E50100005D030000F8B5C046F8BC08BC9E467047BD010000C0500000C8000020B800000048000000000000000F
:4050C00000000000C80100200000E02EC05D00001800000000366E01040404000000000000000000000000000000000000000000000000000000000000000000AC4E0000D9
:40510000000000000000000000000000000000000000000000000000000000000000000000000000000000000000000000000000000000000000000000000000E40000206B
:40514000F54E0000F94F0000F94F0000F94F0000F94F0000F94F0000F94F0000F94F0000F94F0000F94F0000FFFFFFFFFFFFFFFFFFFFFFFFFFFF0000000000000000000072
:4051800000000000000000000000000000000000000000000000000000000000000000000000000000000000000000000000000000000000000000000000000000000000EF
:4051C00000000000000000000000000000000000000000000000000000000000000000000000000000000000000000000000000000000000000000000000000000000000AF
:40520000000000000000000000000000000000000000000000000000000000000000000000000000000000000000000000000000000000000000000000000000000000006E
:40524000000000000000000000000000000000000000000000000000000000000000000000000000000000000000000000000000000000000000000000000000000000002E
:0200000490303A
:02000000C81026
:0200000490402A
:200000000000000000000000000000000000000000000000000000000000000000000000E0
:0200000490501A
:0C000000000204C81193110104E2D9A30E
:0200000490600A
:0100000001FE
:00000001FF